:020000040800F2
:1000000060AB00204D2C0008010500080305000826
:10001000070500080B0500080F0500080000000098
:1000200000000000000000000000000013050008B0
:100030001505000800000000170500081905000854
:10004000672C0008672C0008672C0008672C000844
:10005000672C0008672C0008672C0008672C000834
:1000600077240008672C0008672C0008672C00081C
:10007000672C0008672C0008672C0008672C000814
:10008000672C0008672C0008672C0008672C000804
:10009000672C0008672C0008672C0008672C0008F4
:1000A000672C0008672C0008672C0008672C0008E4
:1000B000672C00085F280008DF230008672C000871
:1000C000672C0008672C0008672C0008672C0008C4
:1000D000672C0008212C0008CB210008D52400083B
:1000E000672C0008672C0008672C0008672C0008A4
:1000F000672C0008672C0008672C0008672C000894
:10010000672C0008672C0008672C0008672C000883
:10011000672C0008672C0008672C0008812700085E
:10012000672C0008672C0008672C0008672C000863
:1001300000F002F800F090F80AA090E8000C824469
:100140008344AAF10107DA4501D100F085F8AFF246
:10015000090EBAE80F0013F0010F18BFFB1A43F0A5
:100160000103184744C2000064C20000103A24BFD3
:1001700078C878C1FAD8520724BF30C830C144BF0C
:1001800004680C607047000000230024002500264E
:10019000103A28BF78C1FBD8520728BF30C148BFEA
:1001A0000B6070476E2908F06081702907F04D8759
:1001B000662909F0FE84652909F0FB84672909F0A6
:1001C000F8846129AFF3008003681B0A28BF41F05F
:1001D0008001692907F0BE86642907F0BB8675296E
:1001E00007F0B8866F2908F05882782907F0198738
:1001F000E92908F0F381E42908F0F081F52908F0F5
:10020000ED81EF2908F05582F82907F01887036877
:10021000DB0928BF41F08001632908F0628173295E
:1002200008F06781E32908F0D784F32908F0DC841B
:10023000002070471FB508F06FFA0400002000216D
:1002400009F0F2F9401C60600020002109F002FA78
:10025000E0601FBD10B510BD08F0F2FC1146FFF7BD
:10026000E9FF00F027F808F0BFFD03B4FFF7F2FF45
:1002700003BC02F07BFC000010B541F61F410920D1
:1002800002F0C0FA4FF4165002F053F910BD0146C7
:1002900049065C4A926942F001025A4B9A615A4AF5
:1002A000526822F0E062584B5A601A4652680A437C
:1002B0005A607047002402F0EFFB4FF4A06002F098
:1002C000E5FC0220FFF7E3FF0120FFF7E0FF4FF41A
:1002D000165002F059FC4FF4E13001F0EDFF4FF4FD
:1002E000E13002F026F94FF4165002F0E3FAFFF77E
:1002F000C3FF04F054FE06F09BFC00F0FFF900F091
:1003000023FA00F0A3FC00F073FD00F05BFE3FA0B9
:1003100007F0AEFD75E043A007F0AAFD63E0002002
:1003200000F02CFA0446042C55D1454800780028EA
:1003300051D144A007F09CFD4FA007F099FD48E083
:10034000002000F01BFA0446012C1CD0022C13D014
:10035000032C08D0042C2ED1002006F080FC52A0E3
:1003600007F086FD27E05248006808B9012000E048
:1003700000204F4908601EE0022006F070FC4DA0EE
:1003800007F076FD17E04A48006808B9012000E050
:100390000020474908604C48D0F8940108B9012072
:1003A00000E0002049490860012006F058FC48A000
:1003B00007F05EFD00BF00BF052002F0AAFB04F0BD
:1003C000EDFD484806F0BBFE47480078012800D103
:1003D00000E0B5E702E00A2002F09BFB04F0DEFD3E
:1003E000404806F0ACFE16480078002897D03FA0A1
:1003F00007F03EFD04F0D2FD3A4806F0A0FE01F001
:100400004FFD88E700100240000001402D2D2D2DEA
:100410002D2D2D2D2D2D2D2D2D2D2D2D2D2D2D2D0C
:100420002D2D2D003573C4DAB0B4776B7570BDF81F
:10043000C8EBC5E4D6C3C4A3CABD0D0A00000000C2
:1004400032000020D1A1D4F1204B4559315F5052E8
:1004500045532D2D3E6169726C696E6B2C4B45596D
:10046000305F505245532D2D3E534F46542D6C69ED
:100470006E6B200D0A0000002020202020574B55D5
:10048000505F505245532D2D3E6C696E6B5F726507
:100490007372742C4B4559325F505245532D2D3E8B
:1004A0006E756C6C200D0A00B8B4CEBB0000000065
:1004B000948121424169722D6C696E6BC4A3CABDDF
:1004C000BDD3C8EB0000000000002342940123428A
:1004D000534F46542D6C696E6BC4A3CABDBDD3C8BF
:1004E000EB00000038A20020330000206469737024
:1004F0006C61794F7065726174696F6E0000000005
:10050000704700BFFEE700BFFEE700BFFEE700BF89
:10051000FEE7704770477047704700000CB5002039
:10052000019000906C48006840F480306A4908608F
:1005300000BF6948006800F4003000900198401C3A
:100540000190009818B90198B0F5A06FF1D16248F8
:10055000006800F4003010B10120009001E000209C
:1005600000900098012843D15C48006840F01000DA
:100570005A4908600846006820F0030008600846F1
:10058000006840F0020008605348406852494860E3
:100590000846406848600846406840F4806048600B
:1005A0000846406820F47C1048600846406840F4E3
:1005B000E81048600846006840F08070086000BF9E
:1005C0004548006800F000700028F9D042484068B3
:1005D00020F00300404948600846406840F00200AF
:1005E000486000BF3C48406800F00C000828F9D182
:1005F0000CBD10B5FFF792FF10BD10B5364800686E
:1006000040F0010034490860084640683449084019
:100610003149486008460068324908402E49086060
:100620000846006820F4802008600846406820F4EE
:10063000FE0048604FF41F008860FFF7DAFF4FF0BC
:1006400000602949086010BD10B50021002000227B
:10065000214B5B6803F00C0121B1042906D0082965
:1006600028D107E0214B224C236027E01F4B204C70
:10067000236023E0184B5B6803F47010164B5B6833
:1006800003F48032022303EB904022B9194B434319
:10069000174C23600DE0104B5B6803F4003323B16B
:1006A000144B4343124C236003E0104B4343104C64
:1006B000236003E00D4B0E4C236000BF00BF064BD0
:1006C0005B68C3F303130C4CE15C094B1B68CB4024
:1006D000074C236010BD00000010024000200240C3
:1006E0000000FFF8FFFFF6FE08ED00E000127A00C0
:1006F0003400002000093D003800002008B5012129
:10070000482002F04DFE2020ADF8000010208DF8AA
:10071000030003208DF802006946094802F084FBBB
:100720002021074802F02DFC2020ADF8000069468A
:10073000044802F079FB2021024802F022FC08BDA7
:10074000000C01400018014008B50121442002F0CE
:1007500027FE1C20ADF8000048208DF803006946F4
:10076000444802F061FB0120ADF8000028208DF81C
:1007700003006946404802F057FB08BD10B5044627
:1007800014B101203D4908703C480078002837D05A
:100790001021384802F0DBFB78B10821354802F01F
:1007A000D6FB50B10421334802F0D1FB28B101211E
:1007B000314802F0CCFB012822D10A2002F0A9F92D
:1007C00000202E49087010212A4802F0C0FB08B909
:1007D000012010BD0821274802F0B9FB08B902200A
:1007E000F7E70421234802F0B2FB08B90320F0E741
:1007F0000121214802F0ABFB01281BD10420E8E7CE
:1008000010211C4802F0A3FB012813D1082119482C
:1008100002F09DFB01280DD10421164802F097FB40
:10082000012807D10121144802F091FB10B90120E1
:10083000124908700020CCE710B500240020FFF713
:100840009DFF044694B1012C0ED0022C05D0032C40
:1008500002D0042C09D108E007E0022006F0FFF9DD
:1008600007A007F005FB00E000BF02E00A2002F04D
:1008700050F910BD00180140000801404800002058
:100880004169722D6C696E6BC4A3CABDBDD3C8EB40
:100890000000000008B50121082002F081FD0120C0
:1008A000ADF8000010208DF8030003208DF8020041
:1008B0006946B24802F0B8FA08BD704710B5012188
:1008C000AF4800F070FA0121AD4800F06CFA012148
:1008D000AB4800F068FA0121A94800F064FA012150
:1008E000A74800F060FA0121A54800F05CFA012158
:1008F000A34800F058FA0121A14800F054FA012160
:100900009F4800F050FA01219D4800F04CFA012167
:100910009B4800F048FA0121994800F044FA01216F
:10092000974800F040FA0121954800F03CFA012177
:10093000934800F038FA0121914800F034FA01217F
:100940008F4800F030FA01218D4800F02CFA012187
:100950008B4800F028FA0121894800F024FA01218F
:10096000874800F020FA0121854800F01CFA012197
:10097000834800F018FA0121814800F014FA01219F
:100980007F4800F010FA01217D4800F00CFA0121A7
:100990007B4800F008FA0121794800F004FA0121AF
:1009A000774800F000FA0121754800F0FCF90121B8
:1009B000734800F0F8F90121714800F0F4F90121C1
:1009C0006F4800F0F0F910BD2DE9F0410546002414
:1009D00016E02E5D00270FE006F0800020B1012117
:1009E000684800F0E0F903E00121674800F0DBF916
:1009F0007006060E781CC7B2082FEDDB601CC4B26F
:100A0000032CE6DBBDE8F08170B50546FFF756FF25
:100A1000002406E0032101FB0450FFF7D5FF601C12
:100A2000C4B2102CF6DBFFF749FF70BD70B5054668
:100A3000FFF744FF002404E02846FFF7C5FF601CD1
:100A4000C4B2102CF8DBFFF739FF70BD2DE9F0417F
:100A500080460F461646FFF731FF0124012535E099
:100A6000042D00D10125012E09D1032094FBF0F1C2
:100A700000FB114018B93846FFF7A6FF22E0022E0E
:100A80000AD1204604EBD0714910A4EB410119B9F9
:100A90003846FFF799FF15E0032E10D1284605EBE5
:100AA000D0714910A5EB410129B1032195FBF1F269
:100AB00001FB125119B93846FFF786FF02E04046A4
:100AC000FFF782FF601CC4B2681CC5B2102CC7DDE2
:100AD000FFF7F4FEBDE8F08170B506460C46FFF75F
:100AE000EDFE002504E03046FFF76EFF681CC5B23E
:100AF000A542F8DBFFF7E2FE70BD70B505460E4675
:100B0000FFF7DCFEC5F11000C4B206E0032101FBD3
:100B10000460FFF759FF601CC4B2102CF6DB002400
:100B200006E0032101FB0460FFF74EFF601CC4B226
:100B3000C5F11000A042F4DCFFF7C0FE70BD70B537
:100B400005460E46FFF7BAFE2C4606E0032101FBE0
:100B50000460FFF739FF601CC4B2102CF6DB0024E0
:100B600006E0032101FB0460FFF72EFF601CC4B206
:100B7000AC42F6DBFFF7A2FE70BD0000000C0140A6
:100B80004B0000204A0000204900002000B58BB037
:100B90000121084602F0F7FB924802F069FE9248F4
:100BA00000900020029001200390002004908020FB
:100BB000059000200690079008904FF4005009908F
:100BC00000200A906946874802F0F4FE85481430F8
:100BD00002F04EFE84480090102002900120039005
:100BE0000020049080200590002006900790089037
:100BF0004FF40050099000200A906946794814305B
:100C000002F0D8FE0122114677480C3803F04DF867
:100C10000122022174480C3803F047F800200BB081
:100C200000BD10B5044670480C3800884FF6C771F7
:100C300008406D490C390880084600882043088028
:100C4000012169480C3803F008F810BD00B587B0E1
:100C50000121082002F0A4FB0121880302F0ADFB72
:100C60004FF46040ADF8180018208DF81B000320E9
:100C70008DF81A0006A95D4802F0D6F84FF46041DD
:100C80005A4802F07EF90020ADF804004FF482705B
:100C9000ADF806000020ADF808000220ADF80A000B
:100CA0000120ADF80C004002ADF80E003820ADF880
:100CB00010000020ADF812000720ADF8140001A9C3
:100CC00049480C3802F024FF012147480C3802F053
:100CD000C4FF1020FFF7A5FFFFF758FF07B000BDC6
:100CE00070B50546002405E0601CC4B2C82C01DDC7
:100CF000002070BD02213C480C3803F032F8002877
:100D0000F2D0294638480C3802F0D8FF002405E01C
:100D1000601CC4B2C82C01DD0020EAE70121324882
:100D20000C3803F01EF80028F2D02F480C3802F0DF
:100D3000C7FFC0B2DDE770B504460D462948443808
:100D400085640465806D20F08000264944398865FB
:100D50000121244802F059FE01212248143002F0FA
:100D600054FE00BF4FF4005002F06AFE0028F9D094
:100D70004FF4005002F078FE4FF4003002F074FEA1
:100D80000021184802F041FE00211648143002F0FC
:100D90003CFE14484438806D40F0800011494439CD
:100DA0008865002070BD70B504460D460D48443876
:100DB000C565446601210B48143002F026FE00BFD1
:100DC0004FF4003002F03CFE0028F9D04FF4003020
:100DD00002F04AFE00210348143002F016FE002003
:100DE00070BD0000440002400C380040000C01407F
:100DF00008B50121082002F0D3FA1820ADF8000050
:100E000010208DF8030003208DF802006946FB488E
:100E100002F00AF808BD10B50120F9490860F94947
:100E2000C1F8900101F051FE0020F5490860012051
:100E300001F04BFE0020F349C1F8900110BD10B540
:100E40000020EF49091D0860EE49C1F88C0101201E
:100E500001F03BFE0120EA49091D0860E949C1F89B
:100E60008C0101F032FE10BD70B50446002517E07C
:100E700004F0800018B10120E149086002E0002080
:100E8000DF4908600120DE49091D086001F01DFEF0
:100E90000020DC49C1F890016006040E681CC5B250
:100EA000082DE5DB0120D6490860D649C1F890013C
:100EB00001F00BFE0020D249091D086070BD10B57D
:100EC0000446FFF7A8FF7820FFF7CEFF4020FFF78A
:100ED000CBFF2046FFF7C8FFFFF7B1FF10BD10B5ED
:100EE0000446FFF798FF7820FFF7BEFF0020FFF7CA
:100EF000BBFF2046FFF7B8FFFFF7A1FF10BD70B59D
:100F000004460D4605F1B001C8B2FFF7E8FF102115
:100F100041EA1410FFF7E3FF04F00F0141F0010074
:100F2000FFF7DDFF70BD70B50646002415E004F143
:100F3000B001C8B2FFF7D3FF0120FFF7D0FF1020A8
:100F4000FFF7CDFF002504E03046FFF7B8FF681C2F
:100F5000C5B2802DF8DB601CC4B2082CE7DB70BD85
:100F600070B5002415E004F1B001C8B2FFF7B7FF77
:100F70000120FFF7B4FF1020FFF7B1FF002504E0C8
:100F80000020FFF79CFF681CC5B2802DF8DB601CB9
:100F9000C4B2082CE7DB70BD10B58D20FFF79FFFB2
:100FA0001020FFF79CFFAE20FFF799FF10BD10B592
:100FB0008D20FFF794FF1420FFF791FFAF20FFF77C
:100FC0008EFF10BD10B54FF4FA7001F0A2FDAE20F7
:100FD000FFF785FF0020FFF782FF1020FFF77FFF5C
:100FE0004020FFF77CFF8120FFF779FFFF20FFF70C
:100FF00076FFA120FFF773FFC820FFF770FFA62040
:10100000FFF76DFFA820FFF76AFF3F20FFF767FF9C
:10101000D320FFF764FF0020FFF761FFD520FFF723
:101020005EFF8020FFF75BFFD920FFF758FFF1201C
:10103000FFF755FFDA20FFF752FF1220FFF74FFFAF
:10104000DB20FFF74CFF4020FFF749FF2020FFF790
:1010500046FF0220FFF743FF8D20FFF740FF1420DB
:10106000FFF73DFFA420FFF73AFFA620FFF737FF69
:10107000AF20FFF734FF0020FFF755FF002108469F
:10108000FFF73DFF10BD10B50246012000E05043C0
:101090000B1EA1F10104E1B2F9D110BD2DE9F0411F
:1010A00006460C4617464FF000080025A7F1200021
:1010B00000F0FF087F2E02DD0026A01CC4B2601CD9
:1010C000C1B23046FFF71BFF002509E008EB4801DD
:1010D0004D4A02EB4101485DFFF7F1FE681CC5B2C5
:1010E000062DF3DBBDE8F0812DE9FF5F0746914651
:1010F0001D460E9E4FF0000A002433E0281B401EC0
:10110000C1B20A20FFF7BFFFB9FBF0F00A21B0FB24
:10111000F1F201FB1208BAF1000F13D1681EA042D0
:1011200010DDB8F1000F0BD1B34606EBDB714910AF
:1011300001FB0471C8B220220199FFF7AFFF0FE055
:101140004FF0010AB34606EBDB71491001FB047155
:10115000C8B208F13001CAB20199FFF79FFF00BF82
:10116000601CC4B2AC42C9DBBDE8FF9F2DE9F0476B
:101170000446884615464FF000090026002720E067
:10118000E85D203800F0FF097E2C04DD002408F122
:10119000010000F0FF0841462046FFF7B0FE0026A0
:1011A00009E009EB4901184A02EB4101885DFFF7AC
:1011B00086FE701CC6B2062EF3DBA01DC4B2781CDE
:1011C000C7B2E85D0028DBD1BDE8F0872DE9F04724
:1011D00006460F46904600250024A14639E018F83F
:1011E00009002038C5B2782E02DD0026781CC7B26F
:1011F00039463046FFF783FE00240FE0000C014023
:101200008C81214200802142D6A7000804EB051101
:10121000C14A505CFFF753FE601CC4B2082CF5DBDA
:10122000781CC1B23046FFF76AFE002408E004EBE8
:1012300005110831B84A505CFFF741FE601CC4B28A
:10124000082CF4DB06F10800C6B209F1010000F039
:10125000FF0918F809000028C1D1BDE8F0872DE981
:10126000F04180460E46174600247D013146404637
:10127000FFF745FE00BF06E0A849485DFFF71FFEE7
:101280006D1C601CC4B2102CF6DB701CC1B2404651
:10129000FFF735FE002406E0A049485DFFF70FFE8A
:1012A0006D1C601CC4B2102CF6DBBDE8F0812DE98A
:1012B000F04180460E4617460024BD0131464046A7
:1012C000FFF71DFE00BF06E09549485DFFF7F7FDFB
:1012D0006D1C601CC4B2102CF6DB701CC1B2404601
:1012E000FFF70DFE002406E08D49485DFFF7E7FD9E
:1012F0006D1C601CC4B2102CF6DBB01CC1B24046A1
:10130000FFF7FDFD002406E08549485DFFF7D7FDA6
:101310006D1C601CC4B2102CF6DBF01CC1B2404640
:10132000FFF7EDFD002406E07D49485DFFF7C7FDAE
:101330006D1C601CC4B2102CF6DBBDE8F0812DE9F9
:10134000F04180460E4617460024FD0131464046D6
:10135000FFF7D5FD00BF06E07249485DFFF7AFFD1E
:101360006D1C601CC4B2202CF6DB701CC1B2404660
:10137000FFF7C5FD002406E06A49485DFFF79FFDC1
:101380006D1C601CC4B2202CF6DBB01CC1B2404600
:10139000FFF7B5FD002406E06249485DFFF78FFDC9
:1013A0006D1C601CC4B2202CF6DBF01CC1B24046A0
:1013B000FFF7A5FD002406E05A49485DFFF77FFDD1
:1013C0006D1C601CC4B2202CF6DBBDE8F0812DE959
:1013D000F04180460E46174600BF07EB4700050266
:1013E00031464046FFF78BFD002406E04E49485D3C
:1013F000FFF765FD6D1C601CC4B2802CF6DB701C11
:10140000C1B24046FFF77BFD002406E04649485D37
:10141000FFF755FD6D1C601CC4B2802CF6DBB01CC0
:10142000C1B24046FFF76BFD002406E03E49485D2F
:10143000FFF745FD6D1C601CC4B2802CF6DBF01C70
:10144000C1B24046FFF75BFD002406E03649485D27
:10145000FFF735FD6D1C601CC4B2802CF6DB301D1F
:10146000C1B24046FFF74BFD002406E02E49485D1F
:10147000FFF725FD6D1C601CC4B2802CF6DB701DCF
:10148000C1B24046FFF73BFD002406E02649485D17
:10149000FFF715FD6D1C601CC4B2802CF6DBBDE8A7
:1014A000F08170472DE9F05F06460F4690461C46D6
:1014B000DDF828A04FF0000BE11704EB5171C910C3
:1014C000A4EBC10131B92046E11704EB5171C1F31E
:1014D000C70506E02046E11704EB5171C910491C0D
:1014E000CDB23D4614E029463046FFF708FDB1462F
:1014F0000AE059460BF1010B1AF80100FFF7DFFC77
:1015000009F1010000F0FF09C145F2DB681CC5B21A
:10151000A542E8DBBDE8F09FFEA90008B69B0008E5
:10152000EEAF0008AEB200082EB400087CB500256E
:1015300000240226FEA006F09BFCFFF711FD2C22E2
:1015400002210020FFF78BFE4F2202211020FFF71F
:1015500086FE502202212020FFF781FE5122022127
:101560003020FFF77CFE522202214020FFF777FE59
:10157000532202215020FFF772FE542202216020E4
:10158000FFF76DFE0B2206216020FFF768FE0C229C
:1015900006217020FFF763FE552206210020FFF789
:1015A0005EFE562206211020FFF759FEE348007B1D
:1015B000E349087014E1E3480078032803D0E148C8
:1015C0000078042800D10CE1DE480078012805D01D
:1015D000DA48C068DA49097888426DD025220221AC
:1015E0004020FFF73CFE252202215020FFF737FE66
:1015F000252202216020FFF732FE2C22022100204A
:10160000FFF72DFE572202211020FFF728FE582257
:1016100002212020FFF723FE252202213020FFF7A0
:101620001EFE5F2202216020FFF719FE60220221C8
:101630007020FFF714FE252206216020FFF70FFE21
:10164000252206217020FFF70AFE552206210020E0
:10165000FFF705FE562206211020FFF700FE0020AE
:10166000B9490870B9480078401CB8490870002092
:10167000B7490870B348007801280BD12C46691C83
:10168000CDB204EB4401B34A8818FFF7CFF9042D1B
:1016900000D10025A948C068A949097888420BD023
:1016A000A648047B04EB4401AA4A8818FFF7BEF958
:1016B000A248007BA2490870A2480078022848D1BD
:1016C000252202214020FFF7CAFD252202216020A9
:1016D000FFF7C5FD572202211020FFF7C0FD582259
:1016E00002212020FFF7BBFD252202213020FFF739
:1016F000B6FD5F2202216020FFF7B1FD60220221CA
:101700007020FFF7ACFD252206216020FFF7A7FD22
:10171000252206217020FFF7A2FD56220621102067
:10172000FFF79DFD252202210020FFF798FD2C22C6
:1017300002215020FFF793FD3246731CDEB204EB0A
:101740004401844BC8188449FFF780F9042E00D166
:10175000002682A085A189A38BA2CDE900108EA1CD
:1017600090A000F0AEFF924908700846007801286A
:1017700007D190480078012803D18F48FFF756F928
:1017800006E08B480078022802D17348FFF74EF933
:1017900087480078062808D188480078012804D1B5
:1017A0000621874801F0CFF800E000BF80480078AC
:1017B000042808D183480078012804D106218248F2
:1017C00001F0C1F807E07A480078032803D1062128
:1017D0007E4801F0B8F803F0E1FB584805F0AFFC93
:1017E000E9E600BF7CBD10B57948002102680846D3
:1017F000FFF735FD10BD10B57648006820B12822EE
:1018000000212020FFF72BFD10BD1CB5FFF7A8FB22
:101810002C2202210020FFF722FD4B220221102062
:10182000FFF71DFD4C2202212020FFF718FD4D225D
:1018300002213020FFF713FD4E2202214020FFF746
:101840000EFD592204211020FFF709FD5A22042120
:101850002020FFF704FD5B2204213020FFF7FFFC6E
:101860005C2204214020FFF7FAFC0C2001231A46D9
:10187000062100906020FFF737FC57A2072168205F
:10188000FFF774FC55A207217020FFF76FFC494851
:101890000078012806D1FFF7AEFF25220221602043
:1018A000FFF7DDFC45480078012806D1FFF79BFFD4
:1018B0004BA202216020FFF789FC424800780128F2
:1018C00004D147A204216020FFF780FCF8E000204B
:1018D000FEF754FF1B49087008460078012807D01E
:1018E00008460078022803D008460078032800D173
:1018F000E7E014480078042819D130480078401CEB
:101900002E49087008460078022879D1002235A1B6
:1019100035A000F0A8FE00202849087025220021EB
:101920000846FFF79CFC25220221602065E07AE052
:101930006775616E677169616E67000038A200208B
:1019400061000020580000205A00002059000020AB
:101950005B0000200300002000000020686F6D6520
:10196000776F726B5F62616400000000686F6D6585
:10197000776F726B5F676F6F64000000706F7374D6
:101980007572655F62616400706F73747572655F14
:10199000676F6F6400000000646F776E5F7265644C
:1019A000000000006F70656E5F72656400000000EB
:1019B0005F0000205E000020150000205C00002079
:1019C000180000205D000020240000202A000020D4
:1019D000640000206C0000202F0000003200000096
:1019E0004F4E000030000000686F6D65776F726BBE
:1019F0005F6F66660000000002E0FFF730FC12E057
:101A000000F0BAFA0022AFF22401F8A000F02BFE99
:101A1000AFF2340202216020FFF7D8FBFFF7E3FEAC
:101A2000F5A006F025FAAFF2CC00AFF2C001AFF29C
:101A3000B403AFF2AC02CDE90010AFF2A401AFF2F3
:101A40009C0000F03EFEEE49087008460078012830
:101A500007D1EC480078012803D1EB48FEF7E6FFF8
:101A600006E0E7480078022802D1E848FEF7DEFFEA
:101A7000E3480078062808D1E5480078012804D119
:101A80000621E44800F05FFF00E000BFDC4800787A
:101A9000042808D1E0480078012804D10621DF4855
:101AA00000F051FF07E0D6480078032803D1062153
:101AB000DB4800F048FF03F071FADA4805F03FFB1D
:101AC00005E700BF1CBD1CB5CE480078012806D133
:101AD000FFF791FE252202216020FFF7C0FBCC48D2
:101AE0000078012807D1FFF77EFEAFF20C12022129
:101AF0006020FFF76BFBC8480078012805D1AFF2E2
:101B0000201204216020FFF761FB25220221002022
:101B1000FFF7A5FB2C2204210020FFF7A0FB8EE09D
:101B20000020FEF72BFEC049087008460078012807
:101B300007D008460078022803D00846007803281A
:101B400000D17DE0B848007804282BD1B248007855
:101B5000401CB149087008460078022813D10022C1
:101B6000AFF28011B1A000F07EFD0020AA490870FC
:101B7000252200212020FFF772FB2522042160206E
:101B8000FFF76DFB0BE00022ABA1AEA000F06BFDF8
:101B900028B9AFF2B41204216020FFF717FBACA004
:101BA00006F066F9AFF24C20AFF24021AFF23423D9
:101BB000AFF22C22CDE90010AFF22421AFF21C20AD
:101BC00000F07FFD8E49087008460078012807D193
:101BD0008C480078012803D18B48FEF727FF06E0E8
:101BE00087480078022802D18848FEF71FFF844802
:101BF0000078062808D186480078012804D10621FB
:101C0000844800F0A0FE00E000BF7D480078042872
:101C100008D181480078012804D106217F4800F0CE
:101C200092FE07E076480078032803D106217C481D
:101C300000F089FE03F0B2F97A4805F080FA6FE708
:101C400000BF1CBD1CB5FFF78BF96E48007801285A
:101C500007D1FFF7D0FDAFF2782202216020FFF715
:101C6000B5FA6B480078012801D1FFF7BCFD6A483E
:101C70000078012804D1252204216020FFF7EFFA23
:101C8000252202210020FFF7EAFA2C22022100205F
:101C9000FFF7E5FA5D2202211020FFF7E0FA5E224D
:101CA00002212020FFF7DBFA0C200123022206216B
:101CB00000906020FFF718FAAFF2E42207216820B5
:101CC000FFF754FAAFF2EC2207217020FFF74EFA2B
:101CD00061A006F0CDF8E0E00020FEF74FFD52498C
:101CE000087008460078012807D0084600780228C6
:101CF00003D008460078032800D1CFE04A48007896
:101D000004282FD13F480078401C3E4908700846FF
:101D10000078022813D10022AFF2383150A000F031
:101D2000A2FC002037490870252200212020FFF75F
:101D300096FA252202216020FFF791FA0FE0002297
:101D4000AFF2603149A000F08EFC00F0A7FBAFF2CB
:101D5000703202216020FFF739FAFFF74CFD46A0F0
:101D600006F086F8AFF20C40AFF20041AFF2F43368
:101D7000AFF2EC32CDE90010AFF2E431AFF2DC307B
:101D800000F09FFC1E4908700846007801280BD11E
:101D90001C480078012807D11B48FEF747FE0621A2
:101DA0001C4800F0D0FD06E015480078022802D15A
:101DB0001648FEF73BFE12480078062808D1144862
:101DC0000078012804D10621124800F0BCFD00E093
:101DD00000BF0B480078042852D10F480078012832
:101DE0004ED106210D4800F0AEFD51E0686F6D65E3
:101DF000776F726B5F6F6E00686F6D655F6F6E00FF
:101E00005F0000205E000020150000200000002080
:101E10005C000020180000205D000020240000204D
:101E20002A00002038A2002058000020706F737430
:101E30007572655F6F666600706F73747572655F4B
:101E40004F4B0000706F73747572655F6F6E0000AA
:101E5000706F735F6F6E00006E69676874000000DA
:101E60006E696768745F6F66660000006E69676818
:101E7000745F6F6E000000006E69675F6F6E000038
:101E800035480078032803D10621344800F05BFD73
:101E900003F084F8324805F052F91DE700BF1CBD7D
:101EA00010B530480078012806D0022812D0032847
:101EB0001ED0042838D129E02B48007800EB4000E0
:101EC0002A4901EB80004078274908700020254905
:101ED00008702AE02448007800EB4000234901EB19
:101EE000800080782049087000201E4908701CE09E
:101EF0001D48007800EB40001C4901EB8000C078D1
:101F0000194908700020174908700EE0164800783B
:101F100000EB4000154901EB800000791249087080
:101F200000201049087000E000BF00BF0E48007894
:101F300000EB40000D4901EB800080680C4908600F
:101F400008460068804710BD10B50A4800210268A5
:101F50006F20FFF784F910BD5F0000202A000020E9
:101F600038A20020580000205000002020C10008A6
:101F7000540000206800002010B5402000F0EAF86E
:101F8000044611A005F074FF322210A110A000F049
:101F90001BFD322000F0BDFD10480368104811A160
:101FA0000268204605F070FF15A005F061FFC82209
:101FB00006A1204600F008FD204600F0BFF811A061
:101FC00005F056FF10BD0000303030004F4B0000D0
:101FD00041542B43574D4F44453D32009000002063
:101FE0008C00002041542B43575341505F444546D9
:101FF0003D222573222C222573222C312C34000003
:10200000313131003232320070B503460C4603E004
:1020100014F8015B03F8015B151EA2F10102F7D170
:1020200070BD30B5034601E003F8011B141EA2F198
:102030000102F9D130BD00B55A494FF40C62C868AD
:102040000021FFF7EEFF57494FF40C42886800214A
:10205000FFF7E7FF01205349087400BD002200216B
:1020600006E05048C06830F8110000B1521C491C0D
:10207000B1F58C6FF5D3642050434FF48C63B0FB03
:10208000F3F0C0B270472DE9F04106460024A046A7
:102090004448007C10B94349086880471EB94FF096
:1020A000FF30BDE8F081C6F34F1506F01F0008B100
:1020B000681C85B240F25F441AE03A48C06830F8C4
:1020C000140020B908F101001FFA80F801E04FF078
:1020D0000008A8450BD1002705E03248C068E11987
:1020E00020F811507F1CAF42F7D36001D9E7641E7E
:1020F000002CE2DA4FF0FF30D3E770B505462948EF
:10210000007C20B9274908688047012070BDB5F5DB
:102110000C4F11D269092348C06830F811200024FF
:1021200006E000201F4BDB680E1923F81600641C24
:102130009442F6DB0020E9E70220E7E770B50446A9
:1021400004B970BD17488068251A2846FFF7D5FFE7
:1021500000BFF6E770B505462846FFF794FF044632
:10216000601C08B9002070BD0E4880682044FAE762
:1021700070B506460C462046FFF785FF0546681CED
:1021800008B9002070BD07498968481922463146C0
:10219000FFF73AFF3046FFF7D1FF02488068284436
:1021A000F0E700007000002010B5044644B10021A3
:1021B000954802F05FFD0121934802F0C7FA03E061
:1021C0000021914802F0C2FA10BD10B540F225512D
:1021D0008E4801F009FB08B38C4801F085FAC4B2BF
:1021E0008B480088B0F5806F12DA0021864802F033
:1021F00041FD8748008810B90120FFF7D5FF8448CA
:1022000001880088401C824A10808248445405E0BE
:102210007F48008840F400407D49088010BD7FB5AC
:1022200005460C460121042001F0C7F8ADF8045022
:10223000ADF800400020ADF80600ADF80200694698
:10224000714801F027FF012211466F4802F099FA08
:102250001E208DF80C0001208DF80D0002208DF855
:102260000E0001208DF80F0003A800F014FD7FBDC3
:1022700070B58CB006460C4615460121084601F0A3
:1022800082F8304601F0F4FA019402951020039090
:102290000020049005908020069000200790089070
:1022A00009904FF480500A9000200B9001A930460D
:1022B00001F080FB0CB070BD10B586B00446012162
:1022C000042001F06DF80121480401F076F84F4830
:1022D00001F0CAF80420ADF8100003208DF81200B8
:1022E00018208DF8130004A94B4800F09DFD08202C
:1022F000ADF8100004208DF8130004A9464800F042
:1023000093FD00940020ADF80400ADF80600ADF890
:102310000800ADF80C000C20ADF80A0069463B48F7
:1023200001F0E5F801228021384801F09DF93B4A8F
:102330003649091D3A48FFF79BFF0121334801F058
:1023400062F9012240F22551304801F068F9262057
:102350008DF8140002208DF8150003208DF816006A
:1023600001208DF8170005A800F095FC41F61F41EB
:1023700040F2E730FFF753FF002025490880FFF7C0
:1023800013FF06B010BD70B504460D46002120466F
:1023900001F03BFB2946204601F04CFB0121204681
:1023A00001F033FB70BD0FB438B505A800901B4891
:1023B000009A049905F04AFD0020009000BF1848DB
:1023C00001F03AFB0028FAD1144805F01FFFC4B20F
:1023D00021461348FFF7D7FF38BC5DF814FB10B552
:1023E0000121094802F07BFC60B10948008840F4F3
:1023F0000040074908800121034802F081FC0020C9
:10240000FFF7D2FE10BD000000080040004400406D
:102410008400002088990020000801408895002051
:10242000800002400EB50121084600F0B9FF0221EC
:10243000084600F00FFE0420019000208DF80800EF
:1024400010208DF8090001208DF80A0001A801F084
:10245000CDFC684600F01FFC08208DF8000002202B
:102460008DF801008DF8020001208DF80300684608
:1024700000F011FC0EBD10B510480078401C0F494B
:10248000087008460078022801D1002008700CA0CE
:1024900005F0EEFC042001F020FD10BD08B501217F
:1024A000102000F07DFF0420ADF8000028208DF8FA
:1024B00003006946064800F0B7FC08BD860000200E
:1024C000746869732069732065786974000000007E
:1024D0000010014010B540F22551994801F084F9EF
:1024E000F8B1974801F000F9C4B29648008800F4AA
:1024F0000040B0B993480088B0F5167F12DA002189
:10250000914802F0B7FB8F48008818B901218E4826
:1025100002F01CF98B490888411C8A4A11808B49BA
:102520000C5405E08748008840F400408549088045
:1025300010BD10B586B004460121082000F030FF20
:102540000121880400F039FF7D4800F08DFF4FF431
:102550008060ADF8100003208DF8120018208DF86F
:10256000130004A97A4800F05FFC4FF40060ADF856
:10257000100004208DF8130004A9754800F054FCE5
:1025800000940020ADF80400ADF80600ADF8080096
:10259000ADF80C000C20ADF80A006946684800F060
:1025A000A6FF0121664801F02EF8012240F22551D4
:1025B000634801F034F827208DF8140002208DF8CC
:1025C000150003208DF8160001208DF8170005A8CE
:1025D00000F061FB41F61F4140F2E73000F0E5F802
:1025E0000020584908800021574802F0AFF806B093
:1025F00010BD0FB438B505A800905648009A04994C
:1026000005F024FC00200090524805F0FFFD85B243
:1026100000240DE000BF4021494801F0CFF8002818
:10262000F9D04C48015D464801F05AF8601C84B26C
:10263000AC42EFDB38BC5DF814FB70B504460025F6
:102640004048008800F4004058B100203D49098806
:10265000C1F30E013D4A50542146104605F0C4FD19
:102660000546284670BD2DE9F04106460D46144644
:102670000027002033490880314637A0FFF7B9FF13
:10268000E5B1DCB113E00A2000F043FA2D480088E0
:1026900000F4004058B12846FFF7CFFF20B129468B
:1026A0002FA005F0E5FB06E0002026490880601E0B
:1026B00080B2041EE7D100BF04B901273846BDE847
:1026C000F0812DE9F04F95B005460E461746984625
:1026D000DDE91E9A4FF0000B029503960497CDF8A2
:1026E0001480CDF81890CDF81CA01648008800F48E
:1026F000004010B3002013490988C1F30E01134AAA
:10270000505410490880012415E001A850F8241005
:102710000E4805F069FD8346BBF1000F09D0214644
:1027200012A005F0A5FB4FF0000B204615B0BDE848
:10273000F08F601CC4B2062CE7DD0020F6E7000035
:10274000004800408800002000140040889D0020C0
:10275000000C0140E09F002025730D0A00000000DE
:1027600061636B3A25730D0A000000002D2D2D2D9D
:102770002D2D25642D2D2D2D2D2D2D2D2D000000E1
:1027800010B50121464802F0AAFA68B14548008810
:1027900040F40040434908800121414802F0B0FA6A
:1027A00000213F4801F0D2FF10BD7FB505460C4621
:1027B0000121202000F001FEADF80450ADF80040EA
:1027C0000020ADF80600ADF802006946344801F07B
:1027D00061FC01221146324801F0D3FF012130484B
:1027E00001F0B4FF37208DF80C0000208DF80D00AB
:1027F00002208DF80E0001208DF80F0003A800F0D4
:102800004AFA7FBD7FB505460C460121022000F043
:10281000D4FDADF80850ADF804400020ADF80A0032
:10282000ADF8060001A9204801F034FC0122114650
:102830001D4801F0A6FF1D208DF8000000208DF836
:10284000010003208DF8020001208DF80300684686
:1028500000F021FA0121144801F078FF7FBD10B586
:102860000121114802F03BFAC8B101210E4802F0E3
:1028700047FA02F09AFB0D48007880B90C480088AE
:10288000401C0B4908800846008841F28831884284
:1028900005DB00200649088001200449087010BDAE
:1028A0000014004088000020000400403200002096
:1028B0003000002010B586B004460121C80400F0A5
:1028C0007CFD0121102000F06BFD4FF48060ADF81D
:1028D000140003208DF8160018208DF8170005A9A4
:1028E0002C4800F0A1FA4FF40060ADF81400042069
:1028F0008DF8170005A9274800F096FA34208DF8C6
:10290000000003208DF801008DF8020001208DF8F1
:102910000300684600F0BFF901940020ADF80800FC
:10292000ADF80A00ADF80C00ADF810000820ADF8C5
:102930000E0001A9184800F0DAFD0121164800F048
:1029400062FE06B010BD70B505460E46002400BFFD
:102950001DE0285D20B900210F4800F0C1FE03E012
:10296000295D0D4800F0BCFE012000F0D2F8701E79
:10297000A0420AD10A21084800F0B2FE012000F06E
:10298000C8F80D21044800F0ABFE601CC4B2B4428C
:10299000DFDB70BD00100140004C004070B5044604
:1029A00000253548008800F4004058B10020324925
:1029B0000988C1F30E01314A50542146104605F0F2
:1029C00013FC0546284670BD2DE9F04106460D462C
:1029D00014460027002028490880314628A0FFF728
:1029E000E2FCE5B1DCB113E00A2000F092F82248E5
:1029F000008800F4004058B12846FFF7CFFF20B10F
:102A0000294621A005F034FA06E000201A49088082
:102A1000601E80B2041EE7D100BF04B9012738460A
:102A2000BDE8F0812DE9F04106460D461446002729
:102A3000002011490880314616A0FFF7B4FCC5B14B
:102A4000BCB10FE00A2000F064F80B48008800F4E5
:102A5000004038B12846FFF7A1FF00B106E0002092
:102A600005490880601E80B2041EEBD100BF04B986
:102A700001273846BDE8F0818400002088990020B5
:102A800025730D0A0000000061636B3A25730D0A7F
:102A9000000000002573000010B56FF0040000F086
:102AA00044F92E4800682E49B0FBF1F02D4908701A
:102AB0000846007800EB4001C1EBC0104FF6FF71F3
:102AC00001EAC0002849088010BD0146254A127855
:102AD0004A434FF0E0235A6100229A611A46126974
:102AE00042F001021A6100BF4FF0E022106900F0CD
:102AF00001021AB100F48032002AF5D04FF0E02232
:102B0000126922F001024FF0E0231A6100229A615B
:102B100070470146144A12884A434FF0E0235A6135
:102B200000229A611A46126942F001021A6100BF3E
:102B30004FF0E022106900F001021AB100F4803277
:102B4000002AF5D04FF0E022126922F001024FF086
:102B5000E0231A6100229A617047000034000020CF
:102B600000127A00940000209600002000BF7047F9
:102B700000BF344A128802F04002002AF9D0C2B2E3
:102B8000304B1B1D1A80704710B586B004460121DA
:102B900044F2040000F004FC4FF40070ADF814009F
:102BA00003208DF8160018208DF8170005A9264877
:102BB00000F03AF94FF48060ADF8140004208DF86D
:102BC000170005A9204800F02FF925208DF80000F6
:102BD00003208DF801008DF8020001208DF803001C
:102BE000684600F058F801940020ADF80800ADF8F0
:102BF0000A00ADF80C00ADF810000C20ADF80E0086
:102C000001A9104800F073FC012240F225510D4843
:102C100000F005FD01210B4800F0F5FC06B010BDE9
:102C200008B540F22551074800F0DEFD40B10548E7
:102C300000F05AFDC0B200900121684602F07CFB12
:102C400008BD0000003801400008014009488047E5
:102C500009480047FEE7FEE7FEE7FEE7FEE7FEE77E
:102C6000FEE7FEE7FEE7FEE704480549054A064B96
:102C700070470000FB0500083101000860A5002036
:102C800060AB002060A7002060A70020314901430D
:102C9000314A1160704770B5002100230F22C478BB
:102CA00004B32D4C246804F4E064C4F5E064210A04
:102CB000C1F10403CA40447804FA03F18478144053
:102CC00021430901254C0678A155047804F01F051D
:102CD0000124AC4005786D11AD0005F1E025C5F883
:102CE000004109E0047804F01F050124AC401C4DAC
:102CF0000678761145F8264070BD1A4A0A4002430C
:102D0000154B1B1F1A60704739B1134A121D126808
:102D10000243114B1B1D1A6006E00F4A121D126878
:102D200082430D4B1B1D1A607047042808D14FF0D9
:102D3000E021096941F004014FF0E022116107E050
:102D40004FF0E021096921F004014FF0E022116108
:102D5000704700000000FA050CED00E000E400E020
:102D600080E100E080FFFF1F10B50446CC4884429C
:102D700008D10121042000F02DFB0021042000F0E7
:102D800029FB46E0C748844208D10121082000F011
:102D900021FB0021082000F01DFB3AE0C2488442DC
:102DA00008D10121102000F015FB0021102000F0B7
:102DB00011FB2EE0BD48844208D10121202000F003
:102DC00009FB0021202000F005FB22E0B8488442E6
:102DD00008D10121402000F0FDFA0021402000F040
:102DE000F9FA16E0B348844208D10121802000F0AE
:102DF000F1FA0021802000F0EDFA0AE0AE488442AA
:102E000007D10121801500F0E5FA0021A01500F09E
:102E1000E1FA10BD10B50121084600F0DBFA0021EF
:102E2000012000F0D7FA10BD2DE9F041024600253F
:102E30000026002000230024002791F803C00CF096
:102E40000F0591F803C00CF0100CBCF1000F03D07B
:102E500091F802C04CEA050591F800C0BCF1000FE2
:102E600031D0146800202BE04FF0010C0CFA00F375
:102E7000B1F800C00CEA03069E4220D183004FF057
:102E80000F0C0CFA03F7BC4305FA03FC4CEA0404EC
:102E900091F803C0BCF1280F06D14FF0010C0CFAD9
:102EA00000FCC2F814C00AE091F803C0BCF1480F5E
:102EB00005D14FF0010C0CFA00FCC2F810C0401C08
:102EC0000828D1D31460B1F800C0BCF1FF0F34DD85
:102ED000546800202EE000F1080C4FF0010808FAB9
:102EE0000CF3B1F800C00CEA03069E4221D1830026
:102EF0004FF00F0C0CFA03F7BC4305FA03FC4CEA45
:102F0000040491F803C0BCF1280F05D100F1080CAE
:102F100008FA0CF8C2F8148091F803C0BCF1480F0D
:102F200007D100F1080C4FF0010808FA0CF8C2F8BC
:102F30001080401C0828CED35460BDE8F0814FF6C5
:102F4000FF710180022181700421C1707047024627
:102F5000002093680B400BB1012000E00020704777
:102F60000146886880B2704702460020D3680B4053
:102F70000BB1012000E0002070470146C86880B214
:102F8000704701617047416170470AB1016100E01B
:102F900041617047C16070474FF480320A438261DB
:102FA0008161826182698269704702460020434BD9
:102FB00018684FF68073184040EA021008433F4BF0
:102FC000186070473E49C8617047F0B50A46002353
:102FD00000240021002500F00046B6F1004F02D188
:102FE000364EF16901E0354E7168C0F3034583B296
:102FF00000F44016B6F5401F08D121F070612F4E45
:10300000766826F070662D4F7E6012E000F4801620
:10301000B6F5801F06D1032606FA05F4A14341F058
:10302000706106E0460D360103FA06F6B14341F041
:10303000706122B1460D360103FA06F6314300F005
:103040000046B6F1004F02D11C4EF16101E01B4E6B
:103050007160F0BD30B500228B071C0F0F2303FAFF
:1030600004F2164B08338C1053F824309343134C5E
:1030700008348D1044F8253023468C1053F8243042
:103080008C07240F00FA04F423430C4C08348D10F1
:1030900044F8253030BD0A49DC3108607047000033
:1030A00000080140000C01400010014000140140E4
:1030B00000180140001C01400020014000000140B8
:1030C00000002042DF48006840F00100DD49086050
:1030D00008464068DC490840DA494860084600680C
:1030E000DA490840D74908600846006820F4802083
:1030F00008600846406820F4FE0048604FF41F0056
:1031000088607047CF49096821F48031CD4A116049
:103110001146096821F480211160B0F5803F03D089
:10312000B0F5802F0ED106E0C649096841F4803120
:10313000C44A116007E0C349096841F4A021C14AAB
:10314000116000E000BF00BF704710B501460022CB
:10315000002300204A11012A02D1BA4C236806E05C
:10316000022A02D1B74C236A01E0B64C636A01F02F
:103170001F02012494401C400CB1012000E00020FB
:1031800010BD38B5002000900024002500BF31207C
:10319000FFF7DBFF05460098401C00900098B0F553
:1031A000A06F01D0002DF2D03120FFF7CEFF08B183
:1031B000012400E00024204638BD01460020A14A39
:1031C000106820F0F80040EAC10010607047A04984
:1031D00008607047024600209A4B586820F47C1023
:1031E00042EA01031843974B5860704798490866B4
:1031F000704701460020934A506820F003000843BE
:10320000506070478F48406800F00C0070470146DE
:1032100000208C4A506820F0F0000843506070474E
:1032200001460020874A506820F4E060084350605F
:10323000704701460020834A506820F4605040EAFD
:10324000C1005060704729B17E4A527A02437D4BDB
:103250005A7204E07B4A527A82437A4B5A72704720
:103260007B49D8310860704701460020754A506894
:1032700020F440400843506070470021714A2032DA
:103280001170704A82F82010012802D004280AD157
:1032900004E001216B4A2032117005E00521694AE2
:1032A0002032117000E000BF00BF7047694908601C
:1032B00070476449096A0143624A1162704765496F
:1032C00044390860704730B50021002200240023F3
:1032D0005C4D6D6805F00C0121B1042905D0082969
:1032E00023D105E05C4D056022E05B4D05601FE0E9
:1032F000544D6D6805F47012524D6D6805F48034BC
:10330000022505EB92421CB9544D554305600BE074
:103310004C4D6D6805F400351DB1504D55430560A9
:1033200002E04D4D5543056002E04B4D056000BF86
:1033300000BF444D6D6805F0F0010909484D6B5C14
:103340000568DD4045603F4D6D6805F4E061090AA0
:10335000434D6B5C4568DD4085603A4D6D6805F412
:103360006051C90A3E4D6B5C4568DD40C560354D16
:103370006D6805F44041890B3A4D6B5CC568B5FB3F
:10338000F3F5056130BD29B12E4A526902432D4B38
:103390005A6104E02B4A526982432A4B5A617047B2
:1033A00029B1284A92690243264B9A6104E0254AD2
:1033B00092698243234B9A61704729B1214AD269AD
:1033C0000243204BDA6104E01E4AD26982431D4B5E
:1033D000DA61704729B11B4AD2680243194BDA609F
:1033E00004E0184AD2688243164BDA60704729B16C
:1033F000144A12690243134B1A6104E0114A12691C
:103400008243104B1A617047124940390860704777
:103410000F49C86470470B49C87170470948406A32
:1034200040F0807007494862704701460020054A15
:1034300092680A400AB1012000E00020704701496B
:1034400088727047001002400000FFF8FFFFF6FE90
:10345000000042428004424200127A0000093D000E
:103460009E000020AE00002010B50446FB488442B8
:1034700009D101218803FFF7ADFF00214FF48040FF
:10348000FFF7A8FF32E0F648844209D10121480441
:10349000FFF7ADFF00214FF40030FFF7A8FF25E054
:1034A000F048844209D101218804FFF7A0FF0021E0
:1034B0004FF48020FFF79BFF18E0EB48844209D1CE
:1034C0000121C804FFF793FF00214FF40020FFF70C
:1034D0008EFF0BE0E548844208D101210805FFF783
:1034E00086FF00214FF48010FFF781FF10BD2DE90A
:1034F000F04786B005460E460024A24600BFA1460E
:103500000027B08900B100BF2F462C8A4CF6FF700F
:103510000440F08804432C82AC894EF6F31004403A
:10352000B08831890843718908430443AC81AC8A6F
:103530004FF6FF400440B0890443AC8201A8FFF776
:10354000C2FEC648874202D1DDF810A001E0DDF8D6
:103550000CA0A88900F4004040B10AEBCA0000EBBF
:103560000A1031684900B0FBF1F807E00AEBCA0025
:1035700000EB0A1031688900B0FBF1F86420B8FB59
:10358000F0F004012009642101FB1089A88900F4EE
:10359000004040B1322000EBC900B0FBF1F000F078
:1035A0000700044308E0322000EB09106421B0FB5F
:1035B000F1F000F00F0004432C8106B0BDE8F08765
:1035C0004FF41651016000218180C18001810C21DE
:1035D000418100218181704710B502460020108A88
:1035E0004FF2FF0318400B884C8823438C882343F9
:1035F000CC8823431843108210BD002101804180F4
:103600008180C180704721B1828942F40052828159
:1036100004E082894DF6FF731A4082817047F0B54D
:103620000346002400260025002040F66A17B94210
:1036300000D100BF1846C1F3421401F01F06012754
:1036400007FA06F5012C01D10C3004E0022C01D15F
:10365000103000E014301AB107682F43076002E011
:103660000768AF430760F0BD1AB1838A0B438382BA
:1036700002E0838A8B4383827047028A4FF6F0739D
:103680001A400282028A0A430282704782894FF2FC
:10369000FF731A40828182890A438281704721B177
:1036A000828942F00202828104E082894FF6FD7332
:1036B0001A4082817047028A4FF6DF731A400282F5
:1036C000028A0A430282704721B1028A42F4804290
:1036D000028204E0028A4BF6FF731A4002827047AE
:1036E000C1F308028280704701468888C0F3080051
:1036F0007047818941F0010181817047028BD2B20C
:103700000283028B42EA012202837047028B02F499
:103710007F420283028B0A430283704721B1828A6F
:1037200042F02002828204E0828A4FF6DF731A4060
:103730008282704721B1828A42F01002828204E0C4
:10374000828A4FF6EF731A408282704721B1828AD3
:1037500042F00802828204E0828A4FF6F7731A4030
:103760008282704721B1828942F40042828103E063
:103770008289C2F30E028281704721B1828A42F4AB
:103780000062828204E0828A4FF2FF731A408282D2
:103790007047828A4FF6FB731A408282828A0A43FC
:1037A0008282704721B1828A42F00202828204E062
:1037B000828A4FF6FD731A408282704702460020CB
:1037C000B1F5007F00D100BF13880B400BB1012081
:1037D00000E00020704701F40072B2F5007F00D1D4
:1037E00000BFCA430280704770B502460024002320
:1037F0000025002040F66A16B14200D100BFC1F397
:10380000421501F01F03012606FA03F3012D02D130
:103810009689334006E0022D02D1168A334001E03A
:10382000968A33400C12012606FA04F416883440B6
:1038300013B10CB1012000E0002070BD10B50022D2
:10384000002340F66A14A14200D100BF0A120124ED
:103850009440A3B2DC43048010BD00000038014056
:103860000044004000480040004C00400050004030
:1038700001684FF6FE721140016000210160416055
:103880008160C1608D49884208D18C4908394968F6
:1038900041F00F01894A083A51608AE087491431A2
:1038A000884208D185490839496841F0F001834AC6
:1038B000083A51607DE081492831884208D17F492A
:1038C0000839496841F470617C4A083A516070E0F7
:1038D0007A493C31884208D178490839496841F42D
:1038E0007041764A083A516063E074495031884229
:1038F00008D172490839496841F470216F4A083A81
:10390000516056E06D496431884208D16B490839ED
:10391000496841F47001694A083A516049E06749D1
:103920007831884208D165490839496841F07061A9
:10393000624A083A51603CE06149884206D1011F61
:10394000096841F00F01021F116032E05C49143137
:10395000884208D15A49091F096841F0F001584AC4
:10396000121F116025E056492831884208D1544978
:10397000091F096841F47061514A121F116018E073
:103980004F493C31884208D14D49091F096841F42B
:1039900070414B4A121F11600BE049495031884277
:1039A00007D14749091F096841F47021444A121F91
:1039B0001160704710B50022026847F6F0739A4311
:1039C0000C6A8B6823430C6923434C6923438C693D
:1039D0002343CC6923434C6A23438C6A23431A4311
:1039E0000260CB6843600B6883604B68C36010BDA6
:1039F0000021016041608160C160016141618161BC
:103A0000C161016241628162704721B1026842F086
:103A10000102026004E002684FF6FE731A40026081
:103A200070471AB103680B43036002E003688B43DD
:103A300003607047416070470146486880B2704734
:103A400001460020002201F080531BB11C4B083BB3
:103A50001A6802E0194B083B1A6802EA01030BB12D
:103A6000012000E00020704700F0805119B1144996
:103A7000091F086002E01149083948607047014693
:103A80000020002201F080531BB10D4B083B1A6847
:103A900002E00A4B083B1A6802EA01030BB101205D
:103AA00000E00020704700F0805119B10449091F5F
:103AB000086002E001490839486070470800024088
:103AC0000804024010B50446BE48844208D10121D2
:103AD0008014FFF77FFC0021A014FFF77BFC16E0A9
:103AE000B948844208D101210014FFF780FC00216D
:103AF0002014FFF77CFC0AE0B448844207D101217E
:103B0000C013FFF774FC0021E013FFF770FC10BD39
:103B100010B50022028802F441520B884C882343DE
:103B20008C882343CC8823430C8923434C8923432B
:103B30008C892343CC8923431A430280838B4FF221
:103B4000FF74234083830B8A038210BD2DE9F04F5D
:103B500085B005460C464FF0000902274FF00008DB
:103B60004FF0010B0026B246A88B4FF240010840EF
:103B7000A88302202884B5F81C90A068022801D1EF
:103B800000BF38E0A08810B94FF0010B01E04FF002
:103B9000020B8D48854200D100E000BF6846FFF768
:103BA00092FBDDF800A0E088B0F5007F0AD14FEA73
:103BB0001A2000EB80004000A168B0FBF1F0401D2E
:103BC00086B20BE04FEA4B10BAFBF0F000EB80003E
:103BD0004000A168B0FBF1F0401D86B20A20B6FBA0
:103BE000F0F606F00108A6EB0800C0F34F074FF609
:103BF000FF7000EA0828022F01DBFF2F02DD0227F9
:103C00004FF00008E08840EA080038432884A08884
:103C1000A1890843618808432188084340F4006073
:103C200040EA0909A5F81C9005B0BDE8F08F002115
:103C3000018041808180C180018141818181C18178
:103C40000721018270470021018041808180C1806D
:103C50000221816000218181704721B1028842F0F8
:103C60004002028004E002884FF6BF731A400280CF
:103C7000704721B1828B42F48062828304E0828BA0
:103C80004FF6FF331A408283704730B5002400237B
:103C90000C110125A540ABB21AB185881D43858062
:103CA00002E085889D43858030BD1AB183880B432F
:103CB000838002E083888B438380704781817047D3
:103CC0000146888970474FF6FF62914204D002880E
:103CD00042F48072028004E002884FF6FF631A40CB
:103CE0000280704721B1828842F00402828004E0A1
:103CF00082884FF6FB731A408280704702884FF229
:103D0000FF731A40028002880A43028070470188CC
:103D100041F480510180704721B1028842F4005281
:103D2000028004E002884DF6FF731A40028070475B
:103D300002460020012901D0108B00E0908A7047D4
:103D40000146088A7047B1F5804F04D1028842F4D9
:103D50008042028004E002884BF6FF731A40028022
:103D600070470246002013890B400BB1012000E090
:103D700000207047CA4302817047F0B50246002018
:103D800000240023002501F00F070126BE40B4B235
:103D90000B1101269E40B3B2968806EA03051689E8
:103DA000264016B10DB1012000E00020F0BD10B595
:103DB000002201F00F040123A3409AB2D3430381F0
:103DC00010BD00000030014000380040003C0040C1
:103DD000002044490860091D0860091D0860091D8C
:103DE000086041483F4914310860704700213D494F
:103DF0008279002A3AD00A46126803689A430B4631
:103E00001A600A1D126803689A430B1D1A60027932
:103E100011440A6803681A430A60324A0832126879
:103E200003689A432F4B08331A601A1D12680368FF
:103E30009A432C4B0C331A604279102A0ED11A1F68
:103E4000126803681A43274B08331A601A1D126858
:103E500003681A43234B0C331A600DE02149427961
:103E600011440A6803681A430A6005E002791144A4
:103E70000A6803689A430A60704700210160017173
:103E80000C21417100218171704716491031096878
:103E90000143144A10321160704701460020114A54
:103EA000143212680A400AB1012000E00020704775
:103EB0000C49143108607047014600200022094B6C
:103EC0001B6803EA0102074B14331B680B4013B154
:103ED0000AB1012000E00020704702491431086057
:103EE0007047000000040140FFFF0F0010B50446BA
:103EF000FE48844208D10121C014FFF76BFA00216B
:103F0000E014FFF767FAC4E0B4F1804F08D1012153
:103F10000846FFF76CFA00210120FFF768FAB8E0C5
:103F2000F348844208D101210220FFF760FA002102
:103F30000220FFF75CFAACE0EE48844208D1012190
:103F40000420FFF754FA00210420FFF750FAA0E004
:103F5000E948844208D101210820FFF748FA0021EE
:103F60000820FFF744FA94E0E448844208D1012194
:103F70001020FFF73CFA00211020FFF738FA88E004
:103F8000DF48844208D101212020FFF730FA0021C8
:103F90002020FFF72CFA7CE0DA48844208D1012186
:103FA0004014FFF717FA00216014FFF713FA70E0CE
:103FB000D548844209D10121C804FFF70BFA00213A
:103FC0004FF40020FFF706FA63E0D048844209D19D
:103FD00001210805FFF7FEF900214FF48010FFF7DB
:103FE000F9F956E0CA48844209D101214805FFF792
:103FF000F1F900214FF40010FFF7ECF949E0C54852
:10400000844208D101214020FFF7F1F9002140202E
:10401000FFF7EDF93DE0C048844208D1012180203E
:10402000FFF7E5F900218020FFF7E1F931E0BB4817
:10403000844208D101218015FFF7D9F90021A0158C
:10404000FFF7D5F925E0B648844209D101210804DB
:10405000FFF7C0F900214FF48030FFF7BBF918E0FB
:10406000B048844209D101214804FFF7B3F9002187
:104070004FF40030FFF7AEF90BE0AB48844208D1B3
:1040800001218804FFF7A6F900214FF48020FFF7F3
:10409000A1F910BD00220288944B98420ED0994B92
:1040A00098420BD0B0F1804F08D0914B984205D088
:1040B000904B984202D0904B984204D14FF68F73A8
:1040C0001A404B881A438D4B984207D08C4B98422C
:1040D00004D04FF6FF431A40CB881A4302808B88E6
:1040E00083850B880385814B98420BD0854B984282
:1040F00008D08B4B984205D08A4B984202D08A4B0D
:10410000984201D10B7A038601238382704770B5F0
:10411000002400220023058C4FF6FE7635400584EE
:10412000028C8388048B4FF68F752C40B51E2C4073
:104130000D882C43751E2A400D892A434D882A4339
:104140006A4DA8420BD06F4DA84208D0744DA842CA
:1041500005D0744DA84202D0734DA84213D14FF63A
:10416000F7752A404D892A434FF6FB752A408D8802
:104170002A434FF6FF652B404FF6FF552B408D89A4
:104180002B43CD892B4383800483CD88858602848D
:1041900070BD70B5002400220023058C4FF6EF7629
:1041A00035400584028C8388048B48F6FF752C40CB
:1041B0004FF6FF452C400D884FF6FF7606EA0525A1
:1041C0002C434FF6DF752A400D8906EA05152A4370
:1041D0004D8806EA05152A43444DA84202D0494DB0
:1041E000A8421DD14FF67F752A404D894FF6FF76C4
:1041F00006EA05152A434FF6BF752A408D8806EA60
:1042000005152A434FF6FF352B404FF2FF752B4023
:104210008D8906EA85052B43CD8906EA85052B4362
:1042200083800483CD880587028470BD70B5002427
:1042300000220023058C4FF6FF6635400584028C72
:104240008388848B4FF68F752C404FF6FC752C407D
:104250000D882C434FF6FF552A400D894FF6FF7607
:1042600006EA05252A434D8806EA05252A431F4DFF
:10427000A84202D0234DA8421DD14FF2FF752A401B
:104280004D894FF6FF7606EA05252A434FF6FF359E
:104290002A408D8806EA05252A434EF6FF752B40F5
:1042A0004DF6FF752B408D8906EA05152B43CD8908
:1042B00006EA05152B4383808483CD888587028495
:1042C00070BD70B5002200230024058C4EF6FF76E9
:1042D00035400584038C8488828B48F6FF752A401C
:1042E0004FF6FF452A400D8820E00000002C0140D9
:1042F0000004004000080040000C00400010004096
:104300000014004000340140004C014000500140C6
:104310000054014000180040001C004000200040F4
:104320000040014000440140004801404FF6FF7644
:1043300006EA05252A434DF6FF752B400D8906EA4E
:1043400005352B434D8806EA05352B43FA4DA84227
:1043500002D0FA4DA84208D14BF6FF752C408D894A
:104360004FF6FF7606EA85152C4384808283CD883C
:10437000A0F84050038470BD828B4FF2FF331A4087
:104380008283828B4FF6FF7303EA01231A438283F1
:104390007047F0B50C461546002200210026078C18
:1043A0004EF6FF7C07EA0C070784828B018C4FF6E0
:1043B000FF7707EA043640F6FF473A404FF6FF77AB
:1043C00007EA05273A434FF6FF7707EA03373A43F0
:1043D000D94FB8420ED0D94FB8420BD0B0F1804F70
:1043E00008D0D74FB84205D0D64FB84202D0D64FEA
:1043F000B84206D14DF6FF77394046F4805739432D
:1044000005E047F6FF57394044F48057394382832B
:104410000184F0BD828B4FF6F3731A408283828B46
:104420000A4382837047F0B50C46154600220021EE
:104430000026078C4FF6FF6C07EA0C070784828B77
:10444000018C4FF6FF7707EA04264FF60C773A40C7
:104450004FF6FF7707EA03172F433A43B64FB842A8
:104460000ED0B64FB8420BD0B0F1804F08D0B44F49
:10447000B84205D0B34FB84202D0B34FB84206D1CC
:104480004FF6FF57394046F48077394305E04FF245
:10449000FF57394044F48077394382830184F0BD6B
:1044A000028B4FF2FF331A400283028B4FF6FF73E9
:1044B00003EA01231A4302837047F0B50C46154600
:1044C000002200210026078C4FF6EF7C07EA0C073C
:1044D0000784028B018C4FF6FF7707EA041640F63B
:1044E000FF473A404FF6FF7707EA03373A434FF664
:1044F000FF7707EA05273A438F4FB8420ED08F4F18
:10450000B8420BD0B0F1804F08D08D4FB84205D0E3
:104510008C4FB84202D08C4FB84206D14FF6DF77AD
:10452000394046F01007394305E04FF65F773940D0
:1045300044F01007394302830184F0BD028B4FF62B
:10454000F3731A400283028B0A4302837047F0B56B
:104550000C46154600220021068C4FF6FE773E40A1
:104560000684028B018C4FF60C7632407E1C06EAE4
:1045700003162E433243704EB0420ED06F4EB042FF
:104580000BD0B0F1804F08D06D4EB04205D06D4ECB
:10459000B04202D06C4EB04206D14FF6FD763140AB
:1045A00044F00106314305E04FF6F576314044F022
:1045B0000106314302830184F0BD70B505460C4607
:1045C0005D4885420ED05D4885420BD0B5F1804FE5
:1045D00008D05B48854205D05A48854202D05A48E7
:1045E000854200D100E000BF208850B92389A2880D
:1045F00061882846FFF7ABFFE1882846FFF79EFF5A
:1046000025E0208804280AD12389A28861882846C9
:10461000FFF753FFE1882846FFF742FF17E02088A5
:1046200008280AD12389A28861882846FFF7FBFE63
:10463000E1882846FFF7EEFE09E02389A288618819
:104640002846FFF7A6FEE1882846FFF795FE70BDD5
:104650002DE9F04105460C4600260127608808B97F
:10466000022600E00026A088012801D1022700E0F0
:1046700001272088A0B92389A28861882846FFF7EE
:1046800066FFE1882846FFF759FF23893A463146FD
:104690002846FFF712FFE1882846FFF701FF13E0E5
:1046A0002389A28861882846FFF707FFE18828460A
:1046B000FFF7F6FE23893A4631462846FFF747FFC3
:1046C000E1882846FFF73AFFBDE8F0810A884B8869
:1046D0001A438B881A43CB881A430B891A434B8998
:1046E0001A438B891A43A0F8442070474FF6FF7194
:1046F000818000210180C1804180017270470021CA
:10470000018041808180C180018141818181C1819D
:104710007047002101804180012181800021C180FA
:10472000018170470021018041808180C180018129
:104730004181818170470000002C0140003401401C
:104740000004004000080040000C004021B1028835
:1047500042F00102028004E002884FF6FE731A4024
:104760000280704731B1B0F8442042F40042A0F812
:10477000442005E0B0F84420C2F30E02A0F8442023
:1047800070471AB183890B43838102E083898B438D
:10479000838170478182704741EA0203A0F8483064
:1047A00070471AB183890B43838102E083898B436D
:1047B0008381704701894FF6F8721140018170477B
:1047C0000A46002101894FF68F7319401143018178
:1047D000704730B504460D4629462046FFF7F0FFE6
:1047E000208940F00700208130BD2DE9F0410446CA
:1047F0000D4616461F46602D06D13B460122314626
:104800002046FFF75AFE05E03B460122314620468E
:10481000FFF79DFE29462046FFF7D2FF208940F092
:1048200007002081BDE8F08130B50C4600210189E8
:10483000C9B24FF6FF7505EA032515432543294301
:10484000018130BD2DE9F04105460E4617469846D8
:10485000002443463A4631462846FFF7E5FF2C89B7
:104860004FF6F870044044F007044FF68F70044090
:1048700044F070042C81BDE8F081F0B504460D468B
:1048800016461F463B46324629462046FFF7CCFFD8
:10489000208940F480402081F0BD018582827047EC
:1048A0000A46002101884FF68F7319401143018099
:1048B0007047F0B50C4615461E4600210022002325
:1048C0000189028B038C4FF6F877394021434FF66C
:1048D000FC473A4040F201173A434FF6DD773B4040
:1048E0004FF6FF7707EA06172F433B430181028308
:1048F0000384F0BD0A460021018B4FF68F731940E7
:104900001143018370470A460021018B48F6FF736B
:1049100019404FF6FF7303EA0223194301837047DE
:104920000A460021818B4FF68F7319401143818312
:1049300070470A460021818B48F6FF7319404FF6F5
:10494000FF7303EA022319438183704721B1028870
:1049500042F08002028004E002884FF67F731A4022
:104960000280704721B1828842F00402828004E014
:1049700082884FF6FB731A408280704721B182888B
:1049800042F00802828004E082884FF6F7731A40F2
:104990008280704721B1828842F00102828004E067
:1049A00082884FF6FE731A40828070470A460021C3
:1049B000018B4FF6F77319401143018370470A4684
:1049C0000021018B4FF2FF7319404FF6FF7303EA8A
:1049D00002231943018370470A460021818B4FF659
:1049E000F77319401143818370470A460021818B78
:1049F0004FF2FF7319404FF6FF7303EA0223194386
:104A0000818370470A460021018B4FF6FB731940E2
:104A10001143018370470A460021018B4FF6FF3393
:104A200019404FF6FF7303EA0223194301837047CD
:104A30000A460021818B4FF6FB7319401143818395
:104A400070470A460021818B4FF6FF3319404FF61D
:104A5000FF7303EA02231943818370470A4600214A
:104A6000018B4FF67F7319401143018370470A464B
:104A70000021018BC1F30E014FF6FF7303EA0223FD
:104A80001943018370470A460021818B4FF67F73DB
:104A900019401143818370470A460021818BC1F37D
:104AA0000E014FF6FF7303EA022319438183704717
:104AB0000A460021018C4FF6FD7319401143018411
:104AC00070470A460021018C4FF6F77319401143D5
:104AD000018470470A460021018C4FF6DF731940AC
:104AE0004FF6FF7303EA02131943018470470A4625
:104AF0000021018C4FF67F7319404FF6FF7303EAD4
:104B000002131943018470470A460021018C4FF6B5
:104B1000FF5319404FF6FF7303EA02231943018440
:104B200070470A460021018C4FF2FF7319404FF67F
:104B3000FF7303EA02231943018470470A460021E8
:104B4000018C4DF6FF7319404FF6FF7303EA0233F1
:104B500019430184704730B5002301248C40A3B26F
:104B6000048C9C430484048C02FA01F5ADB22C43FE
:104B7000048430BD30B5002304248C40A3B2048CDF
:104B80009C430484048C02FA01F5ADB22C430484E6
:104B900030BD70B5034600200024184618300125AA
:104BA0008D40ACB21D8CA5431D8409B1082909D1E3
:104BB00000EB6100056825F0700505600568154388
:104BC00005600EE00D1FC5F34E052844056825F469
:104BD000E045056005684FF6FF7606EA0226354394
:104BE000056070BD21B1028842F00202028004E03B
:104BF00002884FF6FD731A400280704721B1028887
:104C000042F00402028004E002884FF6FB731A406F
:104C10000280704721B1828842F08002828004E0E5
:104C200082884FF67F731A408280704702884FF661
:104C3000F7731A40028002880A4302807047828814
:104C40004FF68F731A40828082880A4382807047B1
:104C500002894FF6F8731A40028102890A430281E1
:104C6000704702894FF67F731A40028102890A4316
:104C700002817047818470478185704781867047C3
:104C80000187704781877047A0F8401070470288FD
:104C90004FF6FF431A40028002880A4302807047A1
:104CA0000146888E70470146088F70470146888FFD
:104CB00070470146B1F8400070470146888C704744
:104CC0000146088D704702460020138A0B400BB145
:104CD000012000E000207047CA430282704730B5CF
:104CE0000246002000230024158A05EA0103958965
:104CF00005EA010413B10CB1012000E0002030BD31
:104D0000CA430282704700002DE9FF5F07460E4646
:104D100093464FF000083446B1463546B24607B1D7
:104D200026B94FF0FF3004B0BDE8F09F4FF0000807
:104D30002EE1781C10F80800262876D2DFE800F073
:104D4000F3F4F57575F6F7F8FC75757575FDEAE918
:104D5000E813262F38414A535C657C858E97A0A9BD
:104D6000B2BBC4CDD6DF2078B849087008460178B8
:104D7000B7A003F07DF8B5480078012802D1BD49FD
:104D8000087002E00020BB490870FCE06078AF4981
:104D9000487008464178B8A003F06AF8F3E0A078BC
:104DA000AA49887008468178BAA003F061F8EAE061
:104DB000E078A649C8700846C178BDA003F058F84D
:104DC000E1E02079A149087108460179C0A003F00B
:104DD0004FF8D8E060799D49487108464179C4A0F0
:104DE00003F046F8CFE0A0799849887108468179A8
:104DF000C6A003F03DF8C6E0E0799449C8710846C2
:104E0000C179CAA003F034F8BDE0A0688F4988607A
:104E100008468168CDA003F02BF88C48806828B143
:104E2000012804D0022804D102E0ABE002E001E056
:104E300000E000BF00BFA6E0E0688449C860084603
:104E4000C168C7A003F014F89DE020697F4908619C
:104E500008460169C7A003F00BF894E060697B493C
:104E6000486108464169C8A003F002F88BE0A069D8
:104E70007649886108468169C9A002F0F9FF82E09D
:104E8000E0697249C8610846C169CBA002F0F0FF31
:104E900079E0206A6D4908620846016ACCA002F0F8
:104EA000E7FF70E0606A694948620846416AD0A03D
:104EB00002F0DEFF67E0A06A644988620846816A02
:104EC000D3A002F0D5FF5EE0E06A6049C862084600
:104ED000C16AD7A002F0CCFF55E0206B5B490863A4
:104EE0000846016BDAA002F0C3FF4CE0606B574943
:104EF00048630846416BDCA002F0BAFF43E0A06BB8
:104F0000524988630846816BDDA002F0B1FF3AE0A8
:104F100019E02BE01BE010E00EE009E007E005E0FF
:104F200003E001E0FFE72EE02DE02CE02BE02AE09B
:104F30000120DB49087026E025E099F80010D9A08F
:104F400002F096FF1FE0DAA002F092FF1BE0A979C1
:104F50006A792B79A868CDE90032CDE90210EB78A7
:104F6000AA782988D7A002F083FF0CE0E0A002F025
:104F70007FFFE4A002F07CFF9AF80010E5A002F0A9
:104F800077FF00E000BF00BF08F1010000F0FF085C
:104F9000387840453FF7CDAE0020C4E6704710B5E5
:104FA00048212A4803F0C8F910BDDF480068401CBA
:104FB000DD4908607047DC4800687047012080F3D5
:104FC000138800BF00BFD948006800F4E060D849EA
:104FD0000843001DD5490860BFF34F8F00BF00BFD5
:104FE000FEE700B5FFF7E1FF00BD08B50020009027
:104FF0000121684600F0A0F908BD70B505460E46CF
:1050000000240DB9601E70BD00241BE0295DC94855
:10501000FEF766FB00BF4021C648FEF7CFFB002825
:10502000F9D0022C0DD3285DFF280AD15521C148A3
:10503000FEF756FB00BF4021BE48FEF7BFFB00282D
:10504000F9D0641CB442E1D33046DCE738A200203A
:105050004576743A204556454E545F4C65645F4F23
:105060006E4F66665F4368616E6765202564200A3F
:1050700000000000600000204576743A2045564547
:105080004E545F5265645F4F6E4F66662025642004
:105090000A0000004576743A204556454E545F524A
:1050A00047425F4F6E4F6666202564200A0000006D
:1050B0004576743A204556454E545F4C6564545FBE
:1050C000435F4F6E4F6666202564200A0000000093
:1050D0004576743A204556454E545F506F7374754B
:1050E00072655F4F6E4F6666202564200A000000DF
:1050F0004576743A204556454E545F54696D655F58
:105100004F6E4F6666202564200A00004576743A8B
:10511000204556454E545F486F6D65776F726B5FE3
:105120004F6E4F6666202564200A00004576743A6B
:10513000204556454E545F4C65645F6175746F5FE2
:105140004F6E4F6666202564200A00004576743A4B
:10515000204556454E545F656E756D2025640A00E6
:105160004576743A4556454E545F4C65645F54200D
:1051700025640A004576743A4556454E545F4C65A1
:10518000645F532025640A004576743A4556454EBF
:10519000545F525F76616C75652025640A000000DB
:1051A0004576743A4556454E545F475F76616C7557
:1051B000652025640A0000004576743A4556454E40
:1051C000545F425F76616C75652025640A000000BB
:1051D0004576743A4556454E545F4C65645F545F5E
:1051E000636F6E73657175656E742025640A0000C7
:1051F0004576743A4556454E545F506F73747572D8
:10520000655F6669727374312025640A00000000CE
:105210004576743A4556454E545F506F73747572B7
:10522000655F6669727374322025640A00000000AD
:105230004576743A4556454E545F506F7374757297
:10524000655F6669727374332025640A000000008C
:105250004576743A4556454E545F54696D655F68AE
:105260006F75722025640A004576743A4556454E9E
:10527000545F54696D655F6D696E2025640A000096
:105280004576743A4556454E545F686F6D65776F45
:10529000726B5F64697374616E63652025640A00D4
:1052A00033000020525353492025640A00000000B7
:1052B0005452414E53504152454E545F4441544123
:1052C000200A0000574946495F4E5450203A205B5F
:1052D00025642D25642D256420253032643A25303F
:1052E00032643A253032645D5B25645D200A00003B
:1052F0004D4F44554C4520494E464F202E2E2E0AE8
:1053000000000000574946204D4F44554C45202E83
:105310002E2E0A006D6F64756C6554797065203AA5
:10532000205B25645D200A00B40000200CED00E045
:105330000000FA050038014070B504460D4600260D
:1053400024B9F6A002F094FD701E70BD2A462146D5
:10535000FA4802F01DFD0646AE4205D0F8A002F064
:1053600087FD4FF0FF30F0E73046EEE710B504461A
:105370002CB9FAA002F07CFD4FF0FF3010BD0020E8
:1053800020606060FF20207060700020F6E770B53C
:1053900004460D462CB9FCA002F06AFD4FF0FF3028
:1053A00070BD3121FE4802F0C7FF2A462146FC4865
:1053B000801C02F04AFFFA485F38A0F88A500121A9
:1053C00080F86010FFF7F7FDF5495F39C1F88C00F0
:1053D0000020E5E7F8B505460C4616460DB104B1C8
:1053E0002EB9F0A002F044FD4FF0FF30F8BD0321CC
:1053F000284602F08DFAB0F1FF3F05D1F4A002F08B
:1054000037FD4FF0FF30F1E7287800F0010098B148
:1054100011212278601C81542078401C20700220C9
:10542000EB1C012200210090084602F076FB08B137
:10543000012000E0002030702878C0F3400098B1CF
:1054400012212278601C81542078401C2070022098
:10545000EB1C012211460090002002F05EFB08B117
:10546000012000E0002070702878C0F3800098B11F
:1054700013212278601C81542078401C2070022067
:10548000EB1C012201460090002002F046FB08B10F
:10549000012000E00020B0702878C0F3C00098B16F
:1054A00014212278601C81542078401C2070022036
:1054B000EB1C012203210090002002F02EFB08B11A
:1054C000012000E00020F0702878C0F3001098B1AF
:1054D00015212278601C81542078401C2070022005
:1054E000EB1C012204210090002002F016FB08B101
:1054F000012000E0002030712878C0F3401098B1FE
:1055000016212278601C81542078401C20700220D3
:10551000EB1C012205210090002002F0FEFA08B1E8
:10552000012000E0002070712878C0F3801098B14D
:1055300017212278601C81542078401C20700220A2
:10554000EB1C012206210090002002F0E6FA08B1CF
:10555000012000E00020B07128780121B1EBD01FBC
:1055600013D118212278601C81542078401C2070AF
:105570000220EB1C012207210090002002F0CDFA4E
:1055800008B1012000E00020F071687800F001000F
:1055900078B119212278601C81542078401C207039
:1055A0000220EB1C024608210090012002F0B5FA0F
:1055B000B0606878C0F3400060B11A212278601CA6
:1055C00081542078401C20706A790021012002F06B
:1055D000BFF9F0606878C0F3800060B11B212278C9
:1055E000601C81542078401C2070AA790021012081
:1055F00002F0AEF930616878C0F3C00060B11C21E0
:105600002278601C81542078401C2070EA790021A7
:10561000012002F09DF970616878C0F3001060B15C
:105620001D212278601C81542078401C20702A7A29
:105630000021012002F08CF9B0616878C0F34010BD
:1056400060B11E212278601C81542078401C20709B
:105650006A7A0021012002F07BF9F0616878C0F3DA
:10566000801060B11F212278601C81542078401C7A
:105670002070AA7A0021012002F06AF9306268786D
:105680000121B1EBD01F0CD120212278601C815464
:105690002078401C2070EA7A0021012002F058F99D
:1056A0007062A87800F0010060B121212278601CAE
:1056B00081542078401C20702A7B0021012002F0B8
:1056C00047F9B062A878C0F3400060B12221227887
:1056D000601C81542078401C20706A7B00210120CE
:1056E00002F036F9F062A878C0F3800060B123219F
:1056F0002278601C81542078401C2070AA7B0021F5
:10570000012002F025F93063A878C0F3C00018B179
:1057100024212278601C69E072E000004552523A70
:105720002067697A507574446174612062756620DF
:10573000697320656D707479200A00009CA40020B4
:105740004552523A204661696C656420746F20723C
:10575000625772697465200A000000004552523A8F
:105760002067697A50726F746F636F6C486561640B
:10577000496E6974206865616420697320656D7085
:105780007479200A000000004552523A2064617486
:105790006120697320656D707479200A0000000033
:1057A000DFA2002067697A44617461506F696E748A
:1057B000324576656E74204572726F72202C2049D6
:1057C0006C6C6567616C20506172616D0A0000004D
:1057D00067697A427974654F726465724578636867
:1057E000616E6765204572726F720A00815420787D
:1057F000401C2070EA7B0021012002F0A9F87063B0
:10580000A878C0F3001060B125212278601C815473
:105810002078401C20702A7C0021012002F098F89A
:10582000B0630020E2E52DE9F04104460D46002773
:10583000002604B135B9C1A002F01AFB4FF0FF30C9
:10584000BDE8F081FFF7B7FB06462878217888424B
:1058500003D0C4A002F00CFB01276878617888426D
:1058600003D0C8A002F004FB0127A878A1788842E1
:1058700003D0CAA002F0FCFA0127E878E178884258
:1058800003D0CCA002F0F4FA0127287921798842CC
:1058900003D0CFA002F0ECFA012768796179884241
:1058A00003D0D2A002F0E4FA0127A879A1798842B6
:1058B00003D0D5A002F0DCFA0127E879E17988422B
:1058C00003D0D9A002F0D4FA0127A868A1688842C1
:1058D00003D0DDA002F0CCFA0127E868E168884235
:1058E00003D0DEA002F0C4FA0127286921698842AA
:1058F00003D0DFA002F0BCFA012768696169884221
:1059000003D0E0A002F0B4FA0127A869A169884297
:1059100003D0E2A002F0ACFA0127E869E16988420D
:1059200003D0E4A002F0A4FA0127286A216A884281
:1059300003D0E6A002F09CFA0127686A616A8842F7
:1059400003D0EAA002F094FA0127A86AA16A88426B
:1059500003D0EEA002F08CFA0127E86AE16A8842DF
:1059600003D0F2A002F084FA0127286B216B884251
:1059700003D0F6A002F07CFA0127686B616B8842C5
:1059800003D0F8A002F074FA0127A86BA16B88423B
:1059900003D0FAA002F06CFA0127E86BE16B8842B1
:1059A0000AD0FE480068301A41F27071884203D371
:1059B000FBA002F05DFA0127286C216C88420AD016
:1059C000F6480068301A41F27071884203D3FBA098
:1059D00002F04EFA0127686C616C88420AD0EF48E9
:1059E0000068301A41F27071884203D3F9A002F0C6
:1059F0003FFA0127012F03D1FFF7DDFAE7490860DD
:105A000038461DE7F8B504460D4604B12DB9F9A096
:105A100002F02EFA4FF0FF30F8BD002028802078E9
:105A20002B46012200210090084602F0D7F860784A
:105A30002B46012211460090002002F0CFF8A078FA
:105A40002B46012202210090002002F0C7F8E078E6
:105A50002B46012203210090002002F0BFF820799C
:105A60002B46012204210090002002F0B7F8607953
:105A70002B46012205210090002002F0AFF8A0790A
:105A80002B46012206210090002002F0A7F8E079C1
:105A90002B46012207210090002002F09FF8A06809
:105AA000032805D3DFA002F0E3F94FF0FF30B3E79E
:105AB000A0682B46022208210090012002F08EF8F7
:105AC0000221284601F024FFE2680021012001F0B4
:105AD00038FFA87022690021012001F032FFE87030
