:020000040800F2
:10000000C8A9002069290008190300081B0300087B
:100010001F03000823030008270300080000000056
:100020000000000000000000000000002B0300089A
:100030002D030008000000002F0300083103000812
:1000400083290008832900088329000883290008E0
:1000500083290008832900088329000883290008D0
:10006000C321000883290008832900088329000888
:1000700083290008832900088329000883290008B0
:1000800083290008832900088329000883290008A0
:100090008329000883290008832900088329000890
:1000A0008329000883290008832900088329000880
:1000B00083290008AB2500082B21000883290008AC
:1000C0008329000883290008832900088329000860
:1000D000832900083D290008171F00082122000875
:1000E0008329000883290008832900088329000840
:1000F0008329000883290008832900088329000830
:10010000832900088329000883290008832900081F
:10011000832900088329000883290008CD240008CA
:1001200083290008832900088329000883290008FF
:1001300000F002F800F090F80AA090E8000C824469
:100140008344AAF10107DA4501D100F085F8AFF246
:10015000090EBAE80F0013F0010F18BFFB1A43F0A5
:1001600001031847C0B20000E0B20000103A24BFFB
:1001700078C878C1FAD8520724BF30C830C144BF0C
:1001800004680C607047000000230024002500264E
:10019000103A28BF78C1FBD8520728BF30C148BFEA
:1001A0000B6070476E2907F09E81702906F08B87DF
:1001B000662908F03C85652908F03985672908F02B
:1001C00036856129AFF3008003681B0A28BF41F020
:1001D0008001692906F0FC86642906F0F9867529F4
:1001E00006F0F6866F2907F09682782906F0578781
:1001F000E92907F03182E42907F02E82F52907F07A
:100200002B82EF2907F09382F82906F056870368BE
:10021000DB0928BF41F08001632907F0A081732921
:1002200007F0A581E32907F01585F32907F01A8562
:10023000002070471FB507F0ADFA04000020002130
:1002400008F030FA401C60600020002108F040FAFD
:10025000E0601FBD10B510BD07F030FD1146FFF77F
:10026000E9FF00F01CF807F0FDFD03B4FFF7F2FF13
:1002700003BC02F009FB0000014649061E4A9269D0
:1002800042F001021C4B9A611C4A526822F0E06263
:100290001A4B5A601A4652680A435A60704702F075
:1002A00089FA4FF4A06002F07FFB0220FFF7E4FF21
:1002B0000120FFF7E1FF4FF4E13002F0F3FA4FF4D1
:1002C000E13001F09FFE4FF4E13001F0D8FF4FF430
:1002D000165002F07DF900F01DF900F041F900F030
:1002E00099FB00F069FC00F051FD05A006F0FEFD51
:1002F00001E001F03CFCFCE700100240000001407E
:1003000030303030303030303030303030303030ED
:100310003030303030300000704700BFFEE700BFA3
:10032000FEE700BFFEE700BFFEE77047704770477B
:10033000704700000CB50020019000906C480068E8
:1003400040F480306A49086000BF6948006800F4E2
:10035000003000900198401C0190009818B9019855
:10036000B0F5A06FF1D16248006800F4003010B120
:100370000120009001E0002000900098012843D166
:100380005C48006840F010005A4908600846006860
:1003900020F0030008600846006840F00200086092
:1003A00053484068524948600846406848600846DB
:1003B000406840F4806048600846406820F47C1043
:1003C00048600846406840F4E81048600846006805
:1003D00040F08070086000BF4548006800F0007081
:1003E0000028F9D04248406820F0030040494860A6
:1003F0000846406840F00200486000BF3C48406842
:1004000000F00C000828F9D10CBD10B5FFF792FFE1
:1004100010BD10B53648006840F00100344908604E
:100420000846406834490840314948600846006839
:10043000324908402E4908600846006820F48020B0
:1004400008600846406820F4FE0048604FF41F0032
:100450008860FFF7DAFF4FF000602949086010BD9F
:1004600010B5002100200022214B5B6803F00C0135
:1004700021B1042906D0082928D107E0214B224CBC
:10048000236027E01F4B204C236023E0184B5B6860
:1004900003F47010164B5B6803F48032022303EB05
:1004A000904022B9194B4343174C23600DE0104B89
:1004B0005B6803F4003323B1144B4343124C2360B5
:1004C00003E0104B4343104C236003E00D4B0E4CF4
:1004D000236000BF00BF064B5B68C3F303130C4CE3
:1004E000E15C094B1B68CB40074C236010BD00004A
:1004F00000100240002002400000FFF8FFFFF6FE5F
:1005000008ED00E000127A003000002000093D00F4
:100510003400002008B50121482002F0CFFD202042
:10052000ADF8000010208DF8030003208DF80200C4
:100530006946094802F006FB2021074802F0AFFB9C
:100540002020ADF800006946044802F0FBFA2021A3
:10055000024802F0A4FB08BD000C01400018014055
:1005600008B50121442002F0A9FD1C20ADF80000CF
:1005700048208DF803006946354802F0E3FA01206F
:10058000ADF8000028208DF803006946314802F0DC
:10059000D9FA08BD10B5044614B101202E490870DF
:1005A0002D480078002837D01021294802F05DFB43
:1005B00078B10821264802F058FB50B104212448A4
:1005C00002F053FB28B10121224802F04EFB012822
:1005D00022D10A2002F02BF900201F4908701021B7
:1005E0001B4802F042FB08B9012010BD0821184841
:1005F00002F03BFB08B90220F7E70421144802F09F
:1006000034FB08B90320F0E70121124802F02DFB6A
:1006100001281BD10420E8E710210D4802F025FB3A
:10062000012813D108210A4802F01FFB01280DD12F
:100630000421074802F019FB012807D101210548D0
:1006400002F013FB10B90120034908700020CCE729
:1006500000180140000801404400002008B50121B5
:10066000082002F02BFD0120ADF8000010208DF8CD
:10067000030003208DF802006946B24802F062FAD6
:1006800008BD704710B50121AF4800F070FA012194
:10069000AD4800F06CFA0121AB4800F068FA012186
:1006A000A94800F064FA0121A74800F060FA01218E
:1006B000A54800F05CFA0121A34800F058FA012196
:1006C000A14800F054FA01219F4800F050FA01219E
:1006D0009D4800F04CFA01219B4800F048FA0121A6
:1006E000994800F044FA0121974800F040FA0121AE
:1006F000954800F03CFA0121934800F038FA0121B6
:10070000914800F034FA01218F4800F030FA0121BD
:100710008D4800F02CFA01218B4800F028FA0121C5
:10072000894800F024FA0121874800F020FA0121CD
:10073000854800F01CFA0121834800F018FA0121D5
:10074000814800F014FA01217F4800F010FA0121DD
:100750007D4800F00CFA01217B4800F008FA0121E5
:10076000794800F004FA0121774800F000FA0121ED
:10077000754800F0FCF90121734800F0F8F90121F7
:10078000714800F0F4F901216F4800F0F0F910BD54
:100790002DE9F0410546002416E02E5D00270FE00C
:1007A00006F0800020B10121684800F0E0F903E084
:1007B0000121674800F0DBF97006060E781CC7B20D
:1007C000082FEDDB601CC4B2032CE6DBBDE8F08132
:1007D00070B50546FFF756FF002406E0032101FB34
:1007E0000450FFF7D5FF601CC4B2102CF6DBFFF7F6
:1007F00049FF70BD70B50546FFF744FF002404E0D3
:100800002846FFF7C5FF601CC4B2102CF8DBFFF7C9
:1008100039FF70BD2DE9F04180460F461646FFF7BF
:1008200031FF0124012535E0042D00D10125012EE1
:1008300009D1032094FBF0F100FB114018B93846B0
:10084000FFF7A6FF22E0022E0AD1204604EBD0716A
:100850004910A4EB410119B93846FFF799FF15E09B
:10086000032E10D1284605EBD0714910A5EB4101AC
:1008700029B1032195FBF1F201FB125119B9384658
:10088000FFF786FF02E04046FFF782FF601CC4B21C
:10089000681CC5B2102CC7DDFFF7F4FEBDE8F0817F
:1008A00070B506460C46FFF7EDFE002504E0304625
:1008B000FFF76EFF681CC5B2A542F8DBFFF7E2FE4A
:1008C00070BD70B505460E46FFF7DCFEC5F11000A1
:1008D000C4B206E0032101FB0460FFF759FF601C6E
:1008E000C4B2102CF6DB002406E0032101FB0460F7
:1008F000FFF74EFF601CC4B2C5F11000A042F4DC4B
:10090000FFF7C0FE70BD70B505460E46FFF7BAFE94
:100910002C4606E0032101FB0460FFF739FF601C51
:10092000C4B2102CF6DB002406E0032101FB0460B6
:10093000FFF72EFF601CC4B2AC42F6DBFFF7A2FE4D
:1009400070BD0000000C0140470000204600002060
:100950004500002000B58BB00121084602F0A1FB44
:10096000924802F013FE924800900020029001206D
:1009700003900020049080200590002006900790AE
:1009800008904FF40050099000200A90694687486B
:1009900002F09EFE8548143002F0F8FD8448009075
:1009A00010200290012003900020049080200590E8
:1009B00000200690079008904FF400500990002006
:1009C0000A9069467948143002F082FE01221146ED
:1009D00077480C3802F0F7FF0122022174480C38E6
:1009E00002F0F1FF00200BB000BD10B504467048C6
:1009F0000C3800884FF6C77108406D490C390880E3
:100A00000846008820430880012169480C3802F01C
:100A1000B2FF10BD00B587B00121082002F04EFBE7
:100A20000121880302F057FB4FF46040ADF8180035
:100A300018208DF81B0003208DF81A0006A95D48C8
:100A400002F080F84FF460415A4802F028F9002083
:100A5000ADF804004FF48270ADF806000020ADF848
:100A600008000220ADF80A000120ADF80C00400299
:100A7000ADF80E003820ADF810000020ADF81200DF
:100A80000720ADF8140001A949480C3802F0CEFE49
:100A9000012147480C3802F06EFF1020FFF7A5FF38
:100AA000FFF758FF07B000BD70B50546002405E00C
:100AB000601CC4B2C82C01DD002070BD02213C487E
:100AC0000C3802F0DCFF0028F2D0294638480C38F8
:100AD00002F082FF002405E0601CC4B2C82C01DDD6
:100AE0000020EAE7012132480C3802F0C8FF002854
:100AF000F2D02F480C3802F071FFC0B2DDE770B5BC
:100B000004460D462948443885640465806D20F00C
:100B100080002649443988650121244802F003FEFB
:100B200001212248143002F0FEFD00BF4FF40050B6
:100B300002F014FE0028F9D04FF4005002F022FE1B
:100B40004FF4003002F01EFE0021184802F0EBFDC9
:100B500000211648143002F0E6FD14484438806D38
:100B600040F08000114944398865002070BD70B59F
:100B700004460D460D484438C565446601210B48BE
:100B8000143002F0D0FD00BF4FF4003002F0E6FD5B
:100B90000028F9D04FF4003002F0F4FD00210348A2
:100BA000143002F0C0FD002070BD0000440002407F
:100BB0000C380040000C014008B50121082002F06B
:100BC0007DFA1820ADF8000010208DF803000320F6
:100BD0008DF802006946FB4801F0B4FF08BD10B56E
:100BE0000120F9490860F949C1F8900101F0FBFDC5
:100BF0000020F5490860012001F0F5FD0020F349CF
:100C0000C1F8900110BD10B50020EF49091D086022
:100C1000EE49C1F88C01012001F0E5FD0120EA490F
:100C2000091D0860E949C1F88C0101F0DCFD10BD27
:100C300070B50446002517E004F0800018B10120CB
:100C4000E149086002E00020DF4908600120DE4938
:100C5000091D086001F0C7FD0020DC49C1F89001C2
:100C60006006040E681CC5B2082DE5DB0120D649DC
:100C70000860D649C1F8900101F0B5FD0020D249C5
:100C8000091D086070BD10B50446FFF7A8FF782065
:100C9000FFF7CEFF4020FFF7CBFF2046FFF7C8FF4E
:100CA000FFF7B1FF10BD10B50446FFF798FF78209D
:100CB000FFF7BEFF0020FFF7BBFF2046FFF7B8FF9E
:100CC000FFF7A1FF10BD70B504460D4605F1B00158
:100CD000C8B2FFF7E8FF102141EA1410FFF7E3FF65
:100CE00004F00F0141F00100FFF7DDFF70BD70B5AA
:100CF0000646002415E004F1B001C8B2FFF7D3FFA7
:100D00000120FFF7D0FF1020FFF7CDFF002504E002
:100D10003046FFF7B8FF681CC5B2802DF8DB601CB9
:100D2000C4B2082CE7DB70BD70B5002415E004F1F7
:100D3000B001C8B2FFF7B7FF0120FFF7B4FF1020E2
:100D4000FFF7B1FF002504E00020FFF79CFF681CBF
:100D5000C5B2802DF8DB601CC4B2082CE7DB70BD87
:100D600010B58D20FFF79FFF1020FFF79CFFAE20EE
:100D7000FFF799FF10BD10B58D20FFF794FF1420E9
:100D8000FFF791FFAF20FFF78EFF10BD10B54FF4B6
:100D9000FA7001F04CFDAE20FFF785FF0020FFF751
:100DA00082FF1020FFF77FFF4020FFF77CFF8120AC
:100DB000FFF779FFFF20FFF776FFA120FFF773FF12
:100DC000C820FFF770FFA620FFF76DFFA820FFF7F0
:100DD0006AFF3F20FFF767FFD320FFF764FF002083
:100DE000FFF761FFD520FFF75EFF8020FFF75BFF75
:100DF000D920FFF758FFF120FFF755FFDA20FFF762
:100E000052FF1220FFF74FFFDB20FFF74CFF40207F
:100E1000FFF749FF2020FFF746FF0220FFF743FFBF
:100E20008D20FFF740FF1420FFF73DFFA420FFF7C0
:100E30003AFFA620FFF737FFAF20FFF734FF00206F
:100E4000FFF755FF00210846FFF73DFF10BD10B525
:100E50000246012000E050430B1EA1F10104E1B263
:100E6000F9D110BD2DE9F04106460C4617464FF06A
:100E700000080025A7F1200000F0FF087F2E02DD0A
:100E80000026A01CC4B2601CC1B23046FFF71BFF95
:100E9000002509E008EB48014D4A02EB4101485D9D
:100EA000FFF7F1FE681CC5B2062DF3DBBDE8F0814B
:100EB0002DE9FF5F074691461D460E9E4FF0000A42
:100EC000002433E0281B401EC1B20A20FFF7BFFFF9
:100ED000B9FBF0F00A21B0FBF1F201FB1208BAF104
:100EE000000F13D1681EA04210DDB8F1000F0BD126
:100EF000B34606EBDB71491001FB0471C8B2202236
:100F00000199FFF7AFFF0FE04FF0010AB34606EB80
:100F1000DB71491001FB0471C8B208F13001CAB29B
:100F20000199FFF79FFF00BF601CC4B2AC42C9DB50
:100F3000BDE8FF9F2DE9F0470446884615464FF06F
:100F400000090026002720E0E85D203800F0FF09B6
:100F50007E2C04DD002408F1010000F0FF0841466A
:100F60002046FFF7B0FE002609E009EB4901184AC8
:100F700002EB4101885DFFF786FE701CC6B2062EAB
:100F8000F3DBA01DC4B2781CC7B2E85D0028DBD13A
:100F9000BDE8F0872DE9F04706460F46904600254C
:100FA0000024A14639E018F809002038C5B2782E8F
:100FB00002DD0026781CC7B239463046FFF783FEB3
:100FC00000240FE0000C01408C812142008021426E
:100FD0005298000804EB0511C14A505CFFF753FE1C
:100FE000601CC4B2082CF5DB781CC1B23046FFF798
:100FF0006AFE002408E004EB05110831B84A505C91
:10100000FFF741FE601CC4B2082CF4DB06F10800B7
:10101000C6B209F1010000F0FF0918F80900002824
:10102000C1D1BDE8F0872DE9F04180460E46174654
:1010300000247D0131464046FFF745FE00BF06E033
:10104000A849485DFFF71FFE6D1C601CC4B2102C40
:10105000F6DB701CC1B24046FFF735FE002406E007
:10106000A049485DFFF70FFE6D1C601CC4B2102C38
:10107000F6DBBDE8F0812DE9F04180460E461746CB
:101080000024BD0131464046FFF71DFE00BF06E0CB
:101090009549485DFFF7F7FD6D1C601CC4B2102C2C
:1010A000F6DB701CC1B24046FFF70DFE002406E0DF
:1010B0008D49485DFFF7E7FD6D1C601CC4B2102C24
:1010C000F6DBB01CC1B24046FFF7FDFD002406E090
:1010D0008549485DFFF7D7FD6D1C601CC4B2102C1C
:1010E000F6DBF01CC1B24046FFF7EDFD002406E040
:1010F0007D49485DFFF7C7FD6D1C601CC4B2102C14
:10110000F6DBBDE8F0812DE9F04180460E4617463A
:101110000024FD0131464046FFF7D5FD00BF06E043
:101120007249485DFFF7AFFD6D1C601CC4B2202CF6
:10113000F6DB701CC1B24046FFF7C5FD002406E097
:101140006A49485DFFF79FFD6D1C601CC4B2202CEE
:10115000F6DBB01CC1B24046FFF7B5FD002406E047
:101160006249485DFFF78FFD6D1C601CC4B2202CE6
:10117000F6DBF01CC1B24046FFF7A5FD002406E0F7
:101180005A49485DFFF77FFD6D1C601CC4B2202CDE
:10119000F6DBBDE8F0812DE9F04180460E461746AA
:1011A00000BF07EB4700050231464046FFF78BFDC5
:1011B000002406E04E49485DFFF765FD6D1C601C8C
:1011C000C4B2802CF6DB701CC1B24046FFF77BFD39
:1011D000002406E04649485DFFF755FD6D1C601C84
:1011E000C4B2802CF6DBB01CC1B24046FFF76BFDE9
:1011F000002406E03E49485DFFF745FD6D1C601C7C
:10120000C4B2802CF6DBF01CC1B24046FFF75BFD98
:10121000002406E03649485DFFF735FD6D1C601C73
:10122000C4B2802CF6DB301DC1B24046FFF74BFD47
:10123000002406E02E49485DFFF725FD6D1C601C6B
:10124000C4B2802CF6DB701DC1B24046FFF73BFDF7
:10125000002406E02649485DFFF715FD6D1C601C63
:10126000C4B2802CF6DBBDE8F08170472DE9F05F59
:1012700006460F4690461C46DDF828A04FF0000BAE
:10128000E11704EB5171C910A4EBC10131B920463B
:10129000E11704EB5171C1F3C70506E02046E117E1
:1012A00004EB5171C910491CCDB23D4614E02946EA
:1012B0003046FFF708FDB1460AE059460BF1010B35
:1012C0001AF80100FFF7DFFC09F1010000F0FF0947
:1012D000C145F2DB681CC5B2A542E8DBBDE8F09F62
:1012E0007A9A0008328C00086AA000082AA3000835
:1012F000AAA400087CB5002400250226FEA005F063
:10130000F5FDFFF711FD2C2202210020FFF78BFED7
:101310004F2202211020FFF786FE502202212020BA
:10132000FFF781FE512202213020FFF77CFE52227E
:1013300002214020FFF777FE532202215020FFF7C1
:1013400072FE542202216020FFF76DFE0B2206215F
:101350006020FFF768FE0C2206217020FFF763FE75
:10136000552206210020FFF75EFE5622062110209E
:10137000FFF759FEF8E00020FFF70CF9E14908708B
:1013800008460078032803D008460078042800D1D6
:10139000EBE0DC480078012857D1252202214020CB
:1013A000FFF741FE252202215020FFF73CFE2522B7
:1013B00002216020FFF737FE2C2202210020FFF7D8
:1013C00032FE572202211020FFF72DFE5822022163
:1013D0002020FFF728FE252202213020FFF723FEE0
:1013E0005F2202216020FFF71EFE60220221702092
:1013F000FFF719FE252206216020FFF714FE2522A3
:1014000006217020FFF70FFE552206210020FFF76E
:101410000AFE562206211020FFF705FE0020BA49D9
:101420000870BA480078401CB84908700020B849D4
:1014300008702546611CCCB205EB4501B54A8818F9
:10144000FFF7D8F9042C00D10024AE480078022818
:1014500048D1252202214020FFF7E5FD2522022167
:101460006020FFF7E0FD572202211020FFF7DBFD8F
:10147000582202212020FFF7D6FD2522022130200C
:10148000FFF7D1FD5F2202216020FFF7CCFD602233
:1014900002217020FFF7C7FD252206216020FFF7FB
:1014A000C2FD252206217020FFF7BDFD5622062130
:1014B0001020FFF7B8FD252202210020FFF7B3FD21
:1014C0002C2202215020FFF7AEFD3246731CDEB203
:1014D00005EB45018F4BC8188F49FFF79BF9042E88
:1014E00000D100268DA091A194A397A2CDE9001070
:1014F00099A19CA000F08BFF9D49087008460078D8
:10150000012807D19B480078012803D19A48FFF7AA
:1015100071F906E096480078022802D17E48FFF76C
:1015200069F993480078062808D194480078012882
:1015300004D10621924801F094F800E000BF8C48E5
:101540000078042808D18F480078012804D10621AA
:101550008D4801F086F807E085480078032803D11C
:1015600006218A4801F07DF805E700BF7CBD10B573
:101570008748002102680846FFF755FD10BD10B5E9
:101580008448006820B1282200212020FFF74BFD6D
:1015900010BD1CB5FFF7C8FB2C2202210020FFF76D
:1015A00042FD4B2202211020FFF73DFD4C2202217B
:1015B0002020FFF738FD4D2202213020FFF733FDB8
:1015C0004E2202214020FFF72EFD59220421102037
:1015D000FFF729FD5A2204212020FFF724FD5B227A
:1015E00004213020FFF71FFD5C2204214020FFF77B
:1015F0001AFD0C2001231A46062100906020FFF7F7
:1016000057FC65A207216820FFF794FC63A207211D
:101610007020FFF78FFC57480078012806D1FFF7AC
:10162000AEFF252202216020FFF7FDFC5348007821
:10163000012806D1FFF79BFF59A202216020FFF786
:10164000A9FC50480078012804D155A2042160204B
:10165000FFF7A0FCEFE00020FEF79CFF294908708F
:1016600008460078012807D008460078022803D0F1
:1016700008460078032800D1DEE0224800780428DC
:101680002CD13E480078401C3C4908700846007840
:10169000022812D1002243A143A000F08AFE0020BC
:1016A00036490870252200210846FFF7BCFC252298
:1016B00002216020FFF7B7FC10E000F003FB0022DE
:1016C00038A13DA000F075FE35A202216020FFF791
:1016D00061FCFFF74CFF3BA005F008FC0FA013A135
:1016E00016A319A2CDE900101BA11EA000F08FFEC9
:1016F0001F490870084669E06775616E6771696126
:101700006E670000540000205600002055000020A5
:10171000570000200300002000000020686F6D6566
:10172000776F726B5F62616400000000686F6D65C7
:10173000776F726B5F676F6F64000000706F737418
:101740007572655F62616400706F73747572655F56
:10175000676F6F6400000000646F776E5F7265648E
:10176000000000006F70656E5F726564000000002D
:101770005B0000205A0000201500002058000020C7
:101780001800002059000020240000202A0000201A
:101790005C000020640000202F00000032000000E8
:1017A0004F4E000030000000686F6D65776F726B00
:1017B0005F6F666600000000686F6D65776F726B23
:1017C0005F6F6E00686F6D655F6F6E000078012857
:1017D00007D1FB480078012803D1FA48FFF70AF83F
:1017E00006E0F9480078022802D1F848FFF702F82D
:1017F000F5480078062808D1F5480078012804D17A
:101800000621F44800F02DFF00E000BFEE4800780C
:10181000042808D1F0480078012804D10621EF48B7
:1018200000F01FFF07E0E8480078032803D10621F5
:10183000EB4800F016FF0EE700BF1CBD1CB5E048EA
:101840000078012806D1FFF79AFE252202216020A8
:10185000FFF7E9FBDE480078012807D1FFF787FE94
:10186000AFF2C40202216020FFF794FBDA4800784F
:10187000012805D1AFF2D80204216020FFF78AFBCE
:10188000252202210020FFF7CEFB2C22042100207C
:10189000FFF7C9FB89E00020FEF77CFED149087004
:1018A00008460078012807D008460078022803D0AF
:1018B00008460078032800D178E0CA480078042858
:1018C0002BD1C5480078401CC349087008460078F1
:1018D000022813D10022AFF23411C3A000F069FD39
:1018E0000020BD490870252200212020FFF79BFB26
:1018F000252204216020FFF796FB0BE00022BDA10A
:10190000BFA000F056FD28B9AFF26C120421602090
:10191000FFF740FBBDA005F0E9FAAFF20020AFF2FF
:10192000F411AFF2E813AFF2E012CDE90010AFF21C
:10193000D811AFF2D01000F06AFDA3490870084634
:101940000078012807D19E480078012803D19D48DE
:10195000FEF750FF06E09C480078022802D19B4821
:10196000FEF748FF98480078062808D19848007884
:10197000012804D10621974800F073FE00E000BF63
:1019800091480078042808D193480078012804D1B0
:101990000621924800F065FE07E08B480078032896
:1019A00003D106218E4800F05CFE74E700BF1CBD29
:1019B0001CB5FFF7B9F982480078012807D1FFF775
:1019C000DEFDAFF2242202216020FFF7E3FA804817
:1019D0000078012801D1FFF7CAFD7F48007801286F
:1019E00004D1252204216020FFF71DFB25220221BE
:1019F0000020FFF718FB2C2202210020FFF713FB29
:101A00005D2202211020FFF70EFB5E220221202022
:101A1000FFF709FB0C200123022206210090602021
:101A2000FFF746FAAFF2902207216820FFF782FA0B
:101A3000AFF2982207217020FFF77CFA75A005F01D
:101A400055FA91E00020FEF7A5FD664908700846AA
:101A50000078012807D008460078022803D00846FD
:101A60000078032800D180E05E48007804282FD158
:101A700053480078401C52490870084600780228F4
:101A800013D10022AFF2E42164A000F092FC002008
:101A90004B490870252200212020FFF7C4FA252297
:101AA00002216020FFF7BFFA0FE00022AFF20C31F5
:101AB0005DA000F07EFC00F097FBAFF21C3202212B
:101AC0006020FFF767FAFFF75AFD5AA005F00EFAFB
:101AD000AFF2B830AFF2AC31AFF2A033AFF2983220
:101AE000CDE90010AFF29031AFF2883000F08FFCFA
:101AF000354908700846007801280BD13048007835
:101B0000012807D12F48FEF775FE0621314800F065
:101B1000A8FD06E02C480078022802D12B48FEF7E9
:101B200069FE29480078062808D12948007801284C
:101B300004D10621274800F094FD00E000BF2248B0
:101B40000078042808D124480078012804D106210F
:101B5000224800F086FD07E01B480078032803D1E7
:101B600006211F4800F07DFD6CE700BF1CBD10B5CD
:101B70001C480078012806D0022812D0032861D022
:101B800004287CD16CE02D48007800EB40002C4903
:101B900001EB800040782949087000201149087045
:101BA0006EE02648007800EB4000254901EB8000FC
:101BB00080782249087000200A49087060E041E0FE
:101BC0005A000020150000205B00002000000020CB
:101BD0005800002018000020590000202400002098
:101BE0002A00002054000020706F73747572655FC6
:101BF0006F666600706F73747572655F4F4B00009F
:101C0000706F73747572655F6F6E0000706F735FD5
:101C10006F6E00006E696768740000006E69676827
:101C2000745F6F66660000006E696768745F6F6E50
:101C3000000000006E69675F6F6E00004C000020BE
:101C40009CB100081A48007800EB4000194901EBEC
:101C50008000C078164908700020174908700FE00E
:101C60001348007800EB4000124901EB8000007936
:101C70000F49087000201049087001E0FFE700BF1D
:101C800000BF0B48007800EB40000A4901EB8000E0
:101C900080680A49086008460068804710BD10B592
:101CA0000748002102686F20FFF7BDF910BD000052
:101CB0004C0000209CB1000854000020500000207F
:101CC0006000002010B5402000F0EAF8044611A0A2
:101CD00005F00CF9322210A110A000F003FD322013
:101CE00000F0A5FD10480368104811A102682046C5
:101CF00005F008F915A005F0F9F8C82206A120465C
:101D000000F0F0FC204600F0BFF811A005F0EEF85E
:101D100010BD0000303030004F4B000041542B43C9
:101D2000574D4F44453D320088000020840000207C
:101D300041542B43575341505F4445463D22257340
:101D4000222C222573222C312C3400003131310019
:101D50003232320070B503460C4603E014F8015BE2
:101D600003F8015B151EA2F10102F7D170BD30B579
:101D7000034601E003F8011B141EA2F10102F9D190
:101D800030BD00B55A494FF40C62C8680021FFF716
:101D9000EEFF57494FF40C4288680021FFF7E7FF38
:101DA00001205349087400BD0022002106E050487C
:101DB000C06830F8110000B1521C491CB1F58C6F9D
:101DC000F5D3642050434FF48C63B0FBF3F0C0B202
:101DD00070472DE9F04106460024A0464448007CA7
:101DE00010B94349086880471EB94FF0FF30BDE87D
:101DF000F081C6F34F1506F01F0008B1681C85B2CC
:101E000040F25F441AE03A48C06830F8140020B944
:101E100008F101001FFA80F801E04FF00008A84522
:101E20000BD1002705E03248C068E11920F81150B5
:101E30007F1CAF42F7D36001D9E7641E002CE2DAC1
:101E40004FF0FF30D3E770B505462948007C20B934
:101E5000274908688047012070BDB5F50C4F11D2A5
:101E600069092348C06830F81120002406E00020EA
:101E70001F4BDB680E1923F81600641C9442F6DB36
:101E80000020E9E70220E7E770B5044604B970BD19
:101E900017488068251A2846FFF7D5FF00BFF6E7E8
:101EA00070B505462846FFF794FF0446601C08B944
:101EB000002070BD0E4880682044FAE770B50646E1
:101EC0000C462046FFF785FF0546681C08B9002030
:101ED00070BD07498968481922463146FFF73AFF25
:101EE0003046FFF7D1FF024880682844F0E7000041
:101EF0006800002010B5044644B10021954802F066
:101F000047FD0121934802F0AFFA03E00021914818
:101F100002F0AAFA10BD10B540F225518E4801F02A
:101F2000F1FA08B38C4801F06DFAC4B28B4800880E
:101F3000B0F5806F12DA0021864802F029FD87484B
:101F4000008810B90120FFF7D5FF84480188008878
:101F5000401C824A10808248445405E07F48008833
:101F600040F400407D49088010BD7FB505460C4611
:101F70000121042001F0AFF8ADF80450ADF80040A5
:101F80000020ADF80600ADF802006946714801F086
:101F90000FFF012211466F4802F081FA1E208DF8D2
:101FA0000C0001208DF80D0002208DF80E0001209C
:101FB0008DF80F0003A800F0FCFC7FBD70B58CB05D
:101FC00006460C4615460121084601F06AF83046DF
:101FD00001F0DCFA01940295102003900020049097
:101FE00005908020069000200790089009904FF4FB
:101FF00080500A9000200B9001A9304601F068FB48
:102000000CB070BD10B586B004460121042001F06B
:1020100055F80121480401F05EF84F4801F0B2F88C
:102020000420ADF8100003208DF8120018208DF860
:10203000130004A94B4800F085FD0820ADF81000FE
:1020400004208DF8130004A9464800F07BFD00949D
:102050000020ADF80400ADF80600ADF80800ADF8BA
:102060000C000C20ADF80A0069463B4801F0CDF8A1
:1020700001228021384801F085F93B4A3649091D83
:102080003A48FFF79BFF0121334801F04AF901224A
:1020900040F22551304801F050F926208DF8140007
:1020A00002208DF8150003208DF8160001208DF810
:1020B000170005A800F07DFC41F61F4140F2E73013
:1020C000FFF753FF002025490880FFF713FF06B0F4
:1020D00010BD70B504460D460021204601F023FBDB
:1020E0002946204601F034FB0121204601F01BFB6C
:1020F00070BD0FB438B505A800901B48009A04992C
:1021000004F0E2FE0020009000BF184801F022FB1E
:102110000028FAD1144805F0B7F8C4B22146134894
:10212000FFF7D7FF38BC5DF814FB10B50121094853
:1021300002F063FC60B10948008840F400400749A0
:1021400008800121034802F069FC0020FFF7D2FE5D
:1021500010BD000000080040004400407C0000204A
:1021600088990020000801408895002080000240E6
:102170000EB50121084600F0A1FF0221084600F03B
:10218000F7FD0420019000208DF8080010208DF844
:10219000090001208DF80A0001A801F0B5FC68468D
:1021A00000F007FC08208DF8000002208DF80100E7
:1021B0008DF8020001208DF80300684600F0F9FB5D
:1021C0000EBD10B510480078401C0F490870084635
:1021D0000078022801D1002008700CA004F086FECF
:1021E000042001F008FD10BD08B50121102000F009
:1021F00065FF0420ADF8000028208DF80300694633
:10220000064800F09FFC08BD7E00002074686973DA
:102210002069732065786974000000000010014097
:1022200010B540F22551994801F06CF9F8B1974882
:1022300001F0E8F8C4B29648008800F40040B0B954
:1022400093480088B0F5167F12DA0021914802F019
:102250009FFB8F48008818B901218E4802F004F9CD
:102260008B490888411C8A4A11808B490C5405E02F
:102270008748008840F400408549088010BD10B5AB
:1022800086B004460121082000F018FF01218804CF
:1022900000F021FF7D4800F075FF4FF48060ADF83D
:1022A000100003208DF8120018208DF8130004A9E7
:1022B0007A4800F047FC4FF40060ADF810000420AD
:1022C0008DF8130004A9754800F03CFC0094002030
:1022D000ADF80400ADF80600ADF80800ADF80C004C
:1022E0000C20ADF80A006946684800F08EFF012115
:1022F000664801F016F8012240F22551634801F0CA
:102300001CF827208DF8140002208DF815000320FA
:102310008DF8160001208DF8170005A800F049FB84
:1023200041F61F4140F2E73000F0E5F8002058493F
:1023300008800021574802F097F806B010BD0FB48E
:1023400038B505A800905648009A049904F0BCFDE1
:1023500000200090524804F097FF85B200240DE061
:1023600000BF4021494801F0B7F80028F9D04C4897
:10237000015D464801F042F8601C84B2AC42EFDBDC
:1023800038BC5DF814FB70B5044600254048008851
:1023900000F4004058B100203D490988C1F30E0106
:1023A0003D4A50542146104604F05CFF054628463D
:1023B00070BD2DE9F04106460D4614460027002069
:1023C00033490880314637A0FFF7B9FFE5B1DCB1EA
:1023D00013E00A2000F02BFA2D48008800F400409A
:1023E00058B12846FFF7CFFF20B129462FA004F0AF
:1023F0007DFD06E0002026490880601E80B2041E94
:10240000E7D100BF04B901273846BDE8F0812DE9C6
:10241000F04F95B005460E4617469846DDE91E9AE0
:102420004FF0000B029503960497CDF81480CDF879
:102430001890CDF81CA01648008800F4004010B396
:10244000002013490988C1F30E01134A5054104962
:102450000880012415E001A850F824100E4804F06B
:1024600001FF8346BBF1000F09D0214612A004F002
:102470003DFD4FF0000B204615B0BDE8F08F601C0D
:10248000C4B2062CE7DD0020F6E70000004800405B
:102490008000002000140040889D0020000C0140B6
:1024A000E09F002025730D0A0000000061636B3A75
:1024B00025730D0A000000002D2D2D2D2D2D2564D6
:1024C0002D2D2D2D2D2D2D2D2D00000010B5012190
:1024D0003C4802F092FA68B13B48008840F4004062
:1024E000394908800121374802F098FA002135481F
:1024F00001F0BAFF10BD7FB505460C460121202032
:1025000000F0E9FDADF80450ADF800400020ADF852
:102510000600ADF8020069462A4801F049FC012294
:102520001146284801F0BBFF0121264801F09CFF1D
:1025300037208DF80C0000208DF80D0002208DF85A
:102540000E0001208DF80F0003A800F032FA7FBDC5
:102550007FB505460C460121022000F0BCFDADF818
:102560000850ADF804400020ADF80A00ADF80600B0
:1025700001A9164801F01CFC01221146134801F084
:102580008EFF1D208DF8000000208DF80100032033
:102590008DF8020001208DF80300684600F009FA6A
:1025A00001210A4801F060FF7FBD10B501210748F5
:1025B00002F023FA28B10121044802F02FFA02F0B8
:1025C0009BFA10BD00140040800000200004004071
:1025D00010B586B004460121C80400F07CFD01213D
:1025E000102000F06BFD4FF48060ADF81400032064
:1025F0008DF8160018208DF8170005A92C4800F05A
:10260000A1FA4FF40060ADF8140004208DF8170013
:1026100005A9274800F096FA34208DF80000032021
:102620008DF801008DF8020001208DF80300684646
:1026300000F0BFF901940020ADF80800ADF80A00E1
:10264000ADF80C00ADF810000820ADF80E0001A99F
:10265000184800F0DAFD0121164800F062FE06B0CD
:1026600010BD70B505460E46002400BF1DE0285D74
:1026700020B900210F4800F0C1FE03E0295D0D489C
:1026800000F0BCFE012000F0D2F8701EA0420AD17A
:102690000A21084800F0B2FE012000F0C8F80D2120
:1026A000044800F0ABFE601CC4B2B442DFDB70BD76
:1026B00000100140004C004070B50446002535482C
:1026C000008800F4004058B1002032490988C1F365
:1026D0000E01314A50542146104604F0C3FD054610
:1026E000284670BD2DE9F04106460D4614460027E8
:1026F000002028490880314628A0FFF7FAFCE5B100
:10270000DCB113E00A2000F092F82248008800F4BF
:10271000004058B12846FFF7CFFF20B1294621A03D
:1027200004F0E4FB06E000201A490880601E80B235
:10273000041EE7D100BF04B901273846BDE8F08187
:102740002DE9F04106460D461446002700201149A8
:102750000880314616A0FFF7CCFCC5B1BCB10FE034
:102760000A2000F064F80B48008800F4004038B1FB
:102770002846FFF7A1FF00B106E0002005490880C8
:10278000601E80B2041EEBD100BF04B90127384699
:10279000BDE8F0817C0000208899002025730D0A97
:1027A0000000000061636B3A25730D0A0000000011
:1027B0002573000010B56FF0040000F044F92E48B6
:1027C00000682E49B0FBF1F02D49087008460078EA
:1027D00000EB4001C1EBC0104FF6FF7101EAC000F1
:1027E0002849088010BD0146254A12784A434FF017
:1027F000E0235A6100229A611A46126942F00102EE
:102800001A6100BF4FF0E022106900F001021AB116
:1028100000F48032002AF5D04FF0E022126922F055
:1028200001024FF0E0231A6100229A6170470146CD
:10283000144A12884A434FF0E0235A6100229A61F9
:102840001A46126942F001021A6100BF4FF0E022FD
:10285000106900F001021AB100F48032002AF5D0AC
:102860004FF0E022126922F001024FF0E0231A61DA
:1028700000229A61704700003000002000127A00A8
:102880008C0000208E00002000BF704700BF344A3B
:10289000128802F04002002AF9D0C2B2304B1B1D50
:1028A0001A80704710B586B00446012144F2040036
:1028B00000F004FC4FF40070ADF8140003208DF814
:1028C000160018208DF8170005A9264800F03AF9DF
:1028D0004FF48060ADF8140004208DF8170005A9AE
:1028E000204800F02FF925208DF8000003208DF8F6
:1028F00001008DF8020001208DF80300684600F009
:1029000058F801940020ADF80800ADF80A00ADF8C1
:102910000C00ADF810000C20ADF80E0001A9104815
:1029200000F073FC012240F225510D4800F005FD36
:1029300001210B4800F0F5FC06B010BD08B540F2CF
:102940002551074800F0DEFD40B1054800F05AFD72
:10295000C0B200900121684602F07EF908BD000077
:1029600000380140000801400948804709480047F5
:10297000FEE7FEE7FEE7FEE7FEE7FEE7FEE7FEE72F
:10298000FEE7FEE704480549054A064B704700008C
:102990001304000831010008C8A30020C8A90020C2
:1029A000C8A50020C8A5002031490143314A116063
:1029B000704770B5002100230F22C47804B32D4C5A
:1029C000246804F4E064C4F5E064210AC1F104035E
:1029D000CA40447804FA03F1847814402143090181
:1029E000254C0678A155047804F01F050124AC405D
:1029F00005786D11AD0005F1E025C5F8004109E04D
:102A0000047804F01F050124AC401C4D06787611B3
:102A100045F8264070BD1A4A0A400243154B1B1F59
:102A20001A60704739B1134A121D12680243114BE4
:102A30001B1D1A6006E00F4A121D126882430D4BDF
:102A40001B1D1A607047042808D14FF0E021096966
:102A500041F004014FF0E022116107E04FF0E02166
:102A6000096921F004014FF0E02211617047000074
:102A70000000FA050CED00E000E400E080E100E079
:102A800080FFFF1F10B50446CC48844208D10121C5
:102A9000042000F02DFB0021042000F029FB46E07B
:102AA000C748844208D10121082000F021FB002101
:102AB000082000F01DFB3AE0C248844208D1012101
:102AC000102000F015FB0021102000F011FB2EE07B
:102AD000BD48844208D10121202000F009FB0021DB
:102AE000202000F005FB22E0B848844208D10121F3
:102AF000402000F0FDFA0021402000F0F9FA16E035
:102B0000B348844208D10121802000F0F1FA00216D
:102B1000802000F0EDFA0AE0AE48844207D101219E
:102B2000801500F0E5FA0021A01500F0E1FA10BDD3
:102B300010B50121084600F0DBFA0021012000F069
:102B4000D7FA10BD2DE9F0410246002500260020ED
:102B500000230024002791F803C00CF00F0591F822
:102B600003C00CF0100CBCF1000F03D091F802C0B0
:102B70004CEA050591F800C0BCF1000F31D0146893
:102B800000202BE04FF0010C0CFA00F3B1F800C06C
:102B90000CEA03069E4220D183004FF00F0C0CFA82
:102BA00003F7BC4305FA03FC4CEA040491F803C0A4
:102BB000BCF1280F06D14FF0010C0CFA00FCC2F852
:102BC00014C00AE091F803C0BCF1480F05D14FF0E2
:102BD000010C0CFA00FCC2F810C0401C0828D1D32C
:102BE0001460B1F800C0BCF1FF0F34DD5468002060
:102BF0002EE000F1080C4FF0010808FA0CF3B1F8D0
:102C000000C00CEA03069E4221D183004FF00F0C56
:102C10000CFA03F7BC4305FA03FC4CEA040491F8F0
:102C200003C0BCF1280F05D100F1080C08FA0CF81C
:102C3000C2F8148091F803C0BCF1480F07D100F12D
:102C4000080C4FF0010808FA0CF8C2F81080401C7C
:102C50000828CED35460BDE8F0814FF6FF710180A3
:102C6000022181700421C1707047024600209368E0
:102C70000B400BB1012000E000207047014688683E
:102C800080B2704702460020D3680B400BB1012090
:102C900000E0002070470146C86880B270470161BB
:102CA0007047416170470AB1016100E041617047BE
:102CB000C16070474FF480320A4382618161826152
:102CC00082698269704702460020434B18684FF6BC
:102CD0008073184040EA021008433F4B1860704769
:102CE0003E49C8617047F0B50A4600230024002120
:102CF000002500F00046B6F1004F02D1364EF169D2
:102D000001E0354E7168C0F3034583B200F440160C
:102D1000B6F5401F08D121F070612F4E766826F07D
:102D200070662D4F7E6012E000F48016B6F5801FAD
:102D300006D1032606FA05F4A14341F0706106E0CE
:102D4000460D360103FA06F6B14341F0706122B137
:102D5000460D360103FA06F6314300F00046B6F19F
:102D6000004F02D11C4EF16101E01B4E7160F0BDBD
:102D700030B500228B071C0F0F2303FA04F2164B09
:102D800008338C1053F824309343134C08348D10BF
:102D900044F8253023468C1053F824308C07240F38
:102DA00000FA04F423430C4C08348D1044F8253009
:102DB00030BD0A49DC31086070470000000801405E
:102DC000000C0140001001400014014000180140B7
:102DD000001C014000200140000001400000204292
:102DE000DF48006840F00100DD490860084640689F
:102DF000DC490840DA49486008460068DA4908407A
:102E0000D74908600846006820F48020086008461A
:102E1000406820F4FE0048604FF41F00886070474F
:102E2000CF49096821F48031CD4A11601146096803
:102E300021F480211160B0F5803F03D0B0F5802FE0
:102E40000ED106E0C649096841F48031C44A1160D8
:102E500007E0C349096841F4A021C14A116000E0BC
:102E600000BF00BF704710B50146002200230020BC
:102E70004A11012A02D1BA4C236806E0022A02D183
:102E8000B74C236A01E0B64C636A01F01F020124CB
:102E900094401C400CB1012000E0002010BD38B56A
:102EA000002000900024002500BF3120FFF7DBFF49
:102EB00005460098401C00900098B0F5A06F01D026
:102EC000002DF2D03120FFF7CEFF08B1012400E041
:102ED0000024204638BD01460020A14A106820F099
:102EE000F80040EAC10010607047A04908607047D0
:102EF000024600209A4B586820F47C1042EA0103F5
:102F00001843974B586070479849086670470146C8
:102F10000020934A506820F0030008435060704737
:102F20008F48406800F00C007047014600208C4A32
:102F3000506820F0F00008435060704701460020C0
:102F4000874A506820F4E0600843506070470146AB
:102F50000020834A506820F4605040EAC10050606D
:102F6000704729B17E4A527A02437D4B5A7204E07F
:102F70007B4A527A82437A4B5A7270477B49D831E6
:102F80000860704701460020754A506820F44040B0
:102F90000843506070470021714A20321170704A16
:102FA00082F82010012802D004280AD104E001216F
:102FB0006B4A2032117005E00521694A20321170F8
:102FC00000E000BF00BF704769490860704764496E
:102FD000096A0143624A11627047654944390860D1
:102FE000704730B500210022002400235C4D6D683D
:102FF00005F00C0121B1042905D0082923D105E0F1
:103000005C4D056022E05B4D05601FE0544D6D682E
:1030100005F47012524D6D6805F48034022505EBFD
:1030200092421CB9544D554305600BE04C4D6D6800
:1030300005F400351DB1504D5543056002E04D4D7E
:103040005543056002E04B4D056000BF00BF444D95
:103050006D6805F0F0010909484D6B5C0568DD40BD
:1030600045603F4D6D6805F4E061090A434D6B5CB6
:103070004568DD4085603A4D6D6805F46051C90AC8
:103080003E4D6B5C4568DD40C560354D6D6805F4AF
:103090004041890B3A4D6B5CC568B5FBF3F50561A2
:1030A00030BD29B12E4A526902432D4B5A6104E0CA
:1030B0002B4A526982432A4B5A61704729B1284AE8
:1030C00092690243264B9A6104E0254A9269824341
:1030D000234B9A61704729B1214AD2690243204BA0
:1030E000DA6104E01E4AD26982431D4BDA617047FF
:1030F00029B11B4AD2680243194BDA6004E0184A2E
:10310000D2688243164BDA60704729B1144A1269BB
:103110000243134B1A6104E0114A12698243104BB7
:103120001A61704712494039086070470F49C864F6
:1031300070470B49C87170470948406A40F0807079
:1031400007494862704701460020054A92680A40D4
:103150000AB1012000E000207047014988727047E1
:10316000001002400000FFF8FFFFF6FE00004242A0
:103170008004424200127A0000093D0096000020BF
:10318000A600002010B50446FB48844209D1012165
:103190008803FFF7ADFF00214FF48040FFF7A8FF41
:1031A00032E0F648844209D101214804FFF7ADFF1F
:1031B00000214FF40030FFF7A8FF25E0F0488442DB
:1031C00009D101218804FFF7A0FF00214FF48020DE
:1031D000FFF79BFF18E0EB48844209D10121C804A6
:1031E000FFF793FF00214FF40020FFF78EFF0BE065
:1031F000E548844208D101210805FFF786FF002138
:103200004FF48010FFF781FF10BD2DE9F04786B025
:1032100005460E460024A24600BFA1460027B089FD
:1032200000B100BF2F462C8A4CF6FF700440F08896
:1032300004432C82AC894EF6F3100440B0883189E7
:103240000843718908430443AC81AC8A4FF6FF40C0
:103250000440B0890443AC8201A8FFF7C2FEC6480F
:10326000874202D1DDF810A001E0DDF80CA0A889AA
:1032700000F4004040B10AEBCA0000EB0A103168CC
:103280004900B0FBF1F807E00AEBCA0000EB0A10B6
:1032900031688900B0FBF1F86420B8FBF0F004015C
:1032A0002009642101FB1089A88900F4004040B185
:1032B000322000EBC900B0FBF1F000F0070004433E
:1032C00008E0322000EB09106421B0FBF1F000F0BF
:1032D0000F0004432C8106B0BDE8F0874FF416516F
:1032E000016000218180C18001810C214181002188
:1032F0008181704710B502460020108A4FF2FF030B
:1033000018400B884C8823438C882343CC88234364
:103310001843108210BD0021018041808180C1804E
:10332000704721B1828942F40052828104E082898F
:103330004DF6FF731A4082817047F0B503460024B2
:1033400000260025002040F66A17B94200D100BFD0
:103350001846C1F3421401F01F06012707FA06F5CB
:10336000012C01D10C3004E0022C01D1103000E01E
:1033700014301AB107682F43076002E00768AF43B3
:103380000760F0BD1AB1838A0B43838202E0838A0F
:103390008B4383827047028A4FF6F0731A40028291
:1033A000028A0A430282704782894FF2FF731A40F1
:1033B000828182890A438281704721B1828942F0E9
:1033C0000202828104E082894FF6FD731A408281F5
:1033D0007047028A4FF6DF731A400282028A0A435C
:1033E0000282704721B1028A42F48042028204E0E4
:1033F000028A4BF6FF731A4002827047C1F308023B
:103400008280704701468888C0F308007047818930
:1034100041F0010181817047028BD2B20283028B9D
:1034200042EA012202837047028B02F47F42028348
:10343000028B0A430283704721B1828A42F0200244
:10344000828204E0828A4FF6DF731A4082827047DC
:1034500021B1828A42F01002828204E0828A4FF611
:10346000EF731A408282704721B1828A42F00802CB
:10347000828204E0828A4FF6F7731A408282704794
:1034800021B1828942F40042828103E08289C2F341
:103490000E028281704721B1828A42F400628282E8
:1034A00004E0828A4FF2FF731A4082827047828A58
:1034B0004FF6FB731A408282828A0A4382827047E7
:1034C00021B1828A42F00202828204E0828A4FF6AF
:1034D000FD731A408282704702460020B1F5007FDA
:1034E00000D100BF13880B400BB1012000E0002089
:1034F000704701F40072B2F5007F00D100BFCA43EB
:103500000280704770B50246002400230025002089
:1035100040F66A16B14200D100BFC1F3421501F076
:103520001F03012606FA03F3012D02D196893340C9
:1035300006E0022D02D1168A334001E0968A33401C
:103540000C12012606FA04F41688344013B10CB1AB
:10355000012000E0002070BD10B50022002340F6DD
:103560006A14A14200D100BF0A1201249440A3B200
:10357000DC43048010BD00000038014000440040DE
:1035800000480040004C00400050004001684FF6E9
:10359000FE72114001600021016041608160C160E4
:1035A0008D49884208D18C490839496841F00F019A
:1035B000894A083A51608AE087491431884208D123
:1035C00085490839496841F0F001834A083A516059
:1035D0007DE081492831884208D17F49083949680E
:1035E00041F470617C4A083A516070E07A493C319C
:1035F000884208D178490839496841F47041764ACF
:10360000083A516063E074495031884208D17249E8
:103610000839496841F470216F4A083A516056E010
:103620006D496431884208D16B490839496841F4D1
:103630007001694A083A516049E067497831884227
:1036400008D165490839496841F07061624A083A11
:1036500051603CE06149884206D1011F096841F090
:103660000F01021F116032E05C491431884208D119
:103670005A49091F096841F0F001584A121F1160A8
:1036800025E056492831884208D15449091F096864
:1036900041F47061514A121F116018E04F493C31EA
:1036A000884208D14D49091F096841F470414B4ACD
:1036B000121F11600BE049495031884207D1474938
:1036C000091F096841F47021444A121F11607047B4
:1036D00010B50022026847F6F0739A430C6A8B68B3
:1036E00023430C6923434C6923438C692343CC69EE
:1036F00023434C6A23438C6A23431A430260CB68FA
:1037000043600B6883604B68C36010BD002101609B
:1037100041608160C160016141618161C16101629B
:1037200041628162704721B1026842F00102026089
:1037300004E002684FF6FE731A40026070471AB147
:1037400003680B43036002E003688B430360704728
:10375000416070470146486880B2704701460020CA
:10376000002201F080531BB11C4B083B1A6802E099
:10377000194B083B1A6802EA01030BB1012000E073
:103780000020704700F0805119B11449091F0860EA
:1037900002E01149083948607047014600200022C4
:1037A00001F080531BB10D4B083B1A6802E00A4B35
:1037B000083B1A6802EA01030BB1012000E0002077
:1037C000704700F0805119B10449091F086002E0F8
:1037D0000149083948607047080002400804024067
:1037E00010B50446BE48844208D101218014FFF779
:1037F0007FFC0021A014FFF77BFC16E0B94884424F
:1038000008D101210014FFF780FC00212014FFF7EC
:103810007CFC0AE0B448844207D10121C013FFF7C1
:1038200074FC0021E013FFF770FC10BD10B50022FE
:10383000028802F441520B884C8823438C8823432E
:10384000CC8823430C8923434C8923438C8923430D
:10385000CC8923431A430280838B4FF2FF742340A9
:1038600083830B8A038210BD2DE9F04F85B0054696
:103870000C464FF0000902274FF000084FF0010BF3
:103880000026B246A88B4FF240010840A8830220D0
:103890002884B5F81C90A068022801D100BF38E048
:1038A000A08810B94FF0010B01E04FF0020B8D48DA
:1038B000854200D100E000BF6846FFF792FBDDF8CB
:1038C00000A0E088B0F5007F0AD14FEA1A2000EB93
:1038D00080004000A168B0FBF1F0401D86B20BE013
:1038E0004FEA4B10BAFBF0F000EB80004000A168FB
:1038F000B0FBF1F0401D86B20A20B6FBF0F606F0F0
:103900000108A6EB0800C0F34F074FF6FF7000EA6E
:103910000828022F01DBFF2F02DD02274FF00008ED
:10392000E08840EA080038432884A088A189084339
:10393000618808432188084340F4006040EA09098F
:10394000A5F81C9005B0BDE8F08F002101804180F2
:103950008180C180018141818181C18107210182F2
:1039600070470021018041808180C18002218160F7
:1039700000218181704721B1028842F0400202801B
:1039800004E002884FF6BF731A400280704721B1ED
:10399000828B42F48062828304E0828B4FF6FF3395
:1039A0001A408283704730B5002400230C11012592
:1039B000A540ABB21AB185881D43858002E0858899
:1039C0009D43858030BD1AB183880B43838002E01C
:1039D00083888B4383807047818170470146888943
:1039E00070474FF6FF62914204D0028842F4807221
:1039F000028004E002884FF6FF631A40028070479D
:103A000021B1828842F00402828004E082884FF66D
:103A1000FB731A408280704702884FF2FF731A408E
:103A2000028002880A4302807047018841F4805175
:103A30000180704721B1028842F40052028004E004
:103A400002884DF6FF731A4002807047024600203C
:103A5000012901D0108B00E0908A70470146088A46
:103A60007047B1F5804F04D1028842F48042028051
:103A700004E002884BF6FF731A400280704702464A
:103A8000002013890B400BB1012000E0002070479B
:103A9000CA4302817047F0B502460020002400238B
:103AA000002501F00F070126BE40B4B20B1101261C
:103AB0009E40B3B2968806EA03051689264016B1E1
:103AC0000DB1012000E00020F0BD10B5002201F092
:103AD0000F040123A3409AB2D343038110BD000019
:103AE0000030014000380040003C004000204449C4
:103AF0000860091D0860091D0860091D086041482B
:103B00003F4914310860704700213D498279002AFD
:103B10003AD00A46126803689A430B461A600A1D97
:103B2000126803689A430B1D1A60027911440A68EF
:103B300003681A430A60324A0832126803689A43DB
:103B40002F4B08331A601A1D126803689A432C4BD6
:103B50000C331A604279102A0ED11A1F12680368BA
:103B60001A43274B08331A601A1D126803681A4358
:103B7000234B0C331A600DE02149427911440A6845
:103B800003681A430A6005E0027911440A68036871
:103B90009A430A6070470021016001710C21417154
:103BA0000021817170471649103109680143144A98
:103BB00010321160704701460020114A1432126819
:103BC0000A400AB1012000E0002070470C4914317E
:103BD00008607047014600200022094B1B6803EA79
:103BE0000102074B14331B680B4013B10AB10120CB
:103BF00000E000207047024914310860704700005F
:103C000000040140FFFF0F0010B50446FE48844247
:103C100008D10121C014FFF76BFA0021E014FFF76F
:103C200067FAC4E0B4F1804F08D101210846FFF7DC
:103C30006CFA00210120FFF768FAB8E0F3488442EB
:103C400008D101210220FFF760FA00210220FFF7CE
:103C50005CFAACE0EE48844208D101210420FFF771
:103C600054FA00210420FFF750FAA0E0E94884420A
:103C700008D101210820FFF748FA00210820FFF7AA
:103C800044FA94E0E448844208D101211020FFF76F
:103C90003CFA00211020FFF738FA88E0DF48844220
:103CA00008D101212020FFF730FA00212020FFF762
:103CB0002CFA7CE0DA48844208D101214014FFF755
:103CC00017FA00216014FFF713FA70E0D548844218
:103CD00009D10121C804FFF70BFA00214FF400209D
:103CE000FFF706FA63E0D048844209D101210805B4
:103CF000FFF7FEF900214FF48010FFF7F9F956E0C5
:103D0000CA48844209D101214805FFF7F1F9002191
:103D10004FF40010FFF7ECF949E0C548844208D1A0
:103D200001214020FFF7F1F900214020FFF7EDF9D4
:103D30003DE0C048844208D101218020FFF7E5F929
:103D400000218020FFF7E1F931E0BB48844208D12F
:103D500001218015FFF7D9F90021A015FFF7D5F94A
:103D600025E0B648844209D101210804FFF7C0F9D3
:103D700000214FF48030FFF7BBF918E0B0488442CF
:103D800009D101214804FFF7B3F900214FF40030B5
:103D9000FFF7AEF90BE0AB48844208D1012188045B
:103DA000FFF7A6F900214FF48020FFF7A1F910BD1D
:103DB00000220288944B98420ED0994B98420BD027
:103DC000B0F1804F08D0914B984205D0904B98426B
:103DD00002D0904B984204D14FF68F731A404B8813
:103DE0001A438D4B984207D08C4B984204D04FF623
:103DF000FF431A40CB881A4302808B8883850B8847
:103E00000385814B98420BD0854B984208D08B4B51
:103E1000984205D08A4B984202D08A4B984201D1F1
:103E20000B7A038601238382704770B50024002239
:103E30000023058C4FF6FE7635400584028C83887E
:103E4000048B4FF68F752C40B51E2C400D882C43EB
:103E5000751E2A400D892A434D882A436A4DA8427F
:103E60000BD06F4DA84208D0744DA84205D0744DB8
:103E7000A84202D0734DA84213D14FF6F7752A40DD
:103E80004D892A434FF6FB752A408D882A434FF609
:103E9000FF652B404FF6FF552B408D892B43CD8975
:103EA0002B4383800483CD888586028470BD70B5E2
:103EB000002400220023058C4FF6EF763540058460
:103EC000028C8388048B48F6FF752C404FF6FF4523
:103ED0002C400D884FF6FF7606EA05252C434FF659
:103EE000DF752A400D8906EA05152A434D8806EA42
:103EF00005152A43444DA84202D0494DA8421DD180
:103F00004FF67F752A404D894FF6FF7606EA051574
:103F10002A434FF6BF752A408D8806EA05152A43C5
:103F20004FF6FF352B404FF2FF752B408D8906EA87
:103F300085052B43CD8906EA85052B4383800483C1
:103F4000CD880587028470BD70B50024002200234F
:103F5000058C4FF6FF6635400584028C8388848B80
:103F60004FF68F752C404FF6FC752C400D882C4376
:103F70004FF6FF552A400D894FF6FF7606EA0525D4
:103F80002A434D8806EA05252A431F4DA84202D040
:103F9000234DA8421DD14FF2FF752A404D894FF69F
:103FA000FF7606EA05252A434FF6FF352A408D881D
:103FB00006EA05252A434EF6FF752B404DF6FF75A0
:103FC0002B408D8906EA05152B43CD8906EA051598
:103FD0002B4383808483CD888587028470BD70B530
:103FE000002200230024058C4EF6FF763540058420
:103FF000038C8488828B48F6FF752A404FF6FF4574
:104000002A400D8820E00000002C01400004004000
:1040100000080040000C0040001000400014004068
:1040200000340140004C0140005001400054014068
:1040300000180040001C00400020004000400140EB
:1040400000440140004801404FF6FF7606EA05258E
:104050002A434DF6FF752B400D8906EA05352B43A3
:104060004D8806EA05352B43FA4DA84202D0FA4D99
:10407000A84208D14BF6FF752C408D894FF6FF768C
:1040800006EA85152C4384808283CD88A0F84050B1
:10409000038470BD828B4FF2FF331A408283828B80
:1040A0004FF6FF7303EA01231A4382837047F0B58A
:1040B0000C461546002200210026078C4EF6FF7C98
:1040C00007EA0C070784828B018C4FF6FF7707EA1B
:1040D000043640F6FF473A404FF6FF7707EA0527D8
:1040E0003A434FF6FF7707EA03373A43D94FB842CE
:1040F0000ED0D94FB8420BD0B0F1804F08D0D74F77
:10410000B84205D0D64FB84202D0D64FB84206D1F9
:104110004DF6FF77394046F48057394305E047F6BE
:10412000FF57394044F48057394382830184F0BDFE
:10413000828B4FF6F3731A408283828B0A43828309
:104140007047F0B50C461546002200210026078C6A
:104150004FF6FF6C07EA0C070784828B018C4FF641
:10416000FF7707EA04264FF60C773A404FF6FF77C1
:1041700007EA03172F433A43B64FB8420ED0B64F63
:10418000B8420BD0B0F1804F08D0B44FB84205D040
:10419000B34FB84202D0B34FB84206D14FF6FF57E3
:1041A000394046F48077394305E04FF2FF573940F4
:1041B00044F48077394382830184F0BD028B4FF24F
:1041C000FF331A400283028B4FF6FF7303EA012389
:1041D0001A4302837047F0B50C46154600220021B1
:1041E0000026078C4FF6EF7C07EA0C070784028B4A
:1041F000018C4FF6FF7707EA041640F6FF473A4076
:104200004FF6FF7707EA03373A434FF6FF7707EA9F
:1042100005273A438F4FB8420ED08F4FB8420BD08C
:10422000B0F1804F08D08D4FB84205D08C4FB842C6
:1042300002D08C4FB84206D14FF6DF77394046F0B6
:104240001007394305E04FF65F77394044F0100717
:10425000394302830184F0BD028B4FF6F3731A4099
:104260000283028B0A4302837047F0B50C46154661
:1042700000220021068C4FF6FE773E400684028B1A
:10428000018C4FF60C7632407E1C06EA03162E4354
:104290003243704EB0420ED06F4EB0420BD0B0F1F0
:1042A000804F08D06D4EB04205D06D4EB04202D066
:1042B0006C4EB04206D14FF6FD76314044F0010617
:1042C000314305E04FF6F576314044F001063143C5
:1042D00002830184F0BD70B505460C465D488542F9
:1042E0000ED05D4885420BD0B5F1804F08D05B48B9
:1042F000854205D05A48854202D05A48854200D1AD
:1043000000E000BF208850B92389A2886188284630
:10431000FFF7ABFFE1882846FFF79EFF25E02088E6
:1043200004280AD12389A28861882846FFF753FF11
:10433000E1882846FFF742FF17E0208808280AD1C5
:104340002389A28861882846FFF7FBFEE18828467A
:10435000FFF7EEFE09E02389A28861882846FFF76F
:10436000A6FEE1882846FFF795FE70BD2DE9F041D5
:1043700005460C4600260127608808B9022600E0A1
:104380000026A088012801D1022700E0012720880B
:10439000A0B92389A28861882846FFF766FFE188D3
:1043A0002846FFF759FF23893A4631462846FFF74A
:1043B00012FFE1882846FFF701FF13E02389A28856
:1043C00061882846FFF707FFE1882846FFF7F6FED9
:1043D00023893A4631462846FFF747FFE1882846B9
:1043E000FFF73AFFBDE8F0810A884B881A438B88B3
:1043F0001A43CB881A430B891A434B891A438B897A
:104400001A43A0F8442070474FF6FF7181800021C5
:104410000180C1804180017270470021018041808C
:104420008180C180018141818181C18170470021EA
:1044300001804180012181800021C180018170477C
:104440000021018041808180C18001814181818181
:1044500070470000002C014000340140000400407F
:1044600000080040000C004021B1028842F0010227
:10447000028004E002884FF6FE731A400280704703
:1044800031B1B0F8442042F40042A0F8442005E0E5
:10449000B0F84420C2F30E02A0F8442070471AB1CD
:1044A00083890B43838102E083898B438381704737
:1044B0008182704741EA0203A0F8483070471AB180
:1044C00083890B43838102E083898B438381704717
:1044D00001894FF6F8721140018170470A460021A8
:1044E00001894FF68F73194011430181704730B530
:1044F00004460D4629462046FFF7F0FF208940F08C
:104500000700208130BD2DE9F04104460D461646D6
:104510001F46602D06D13B46012231462046FFF75B
:104520005AFE05E03B46012231462046FFF79DFE3C
:1045300029462046FFF7D2FF208940F0070020815E
:10454000BDE8F08130B50C4600210189C9B24FF6B3
:10455000FF7505EA0325154325432943018130BD35
:104560002DE9F04105460E4617469846002443467D
:104570003A4631462846FFF7E5FF2C894FF6F8709A
:10458000044044F007044FF68F70044044F0700478
:104590002C81BDE8F081F0B504460D4616461F4655
:1045A0003B46324629462046FFF7CCFF208940F49F
:1045B00080402081F0BD0185828270470A4600213B
:1045C00001884FF68F731940114301807047F0B591
:1045D0000C4615461E460021002200230189028B4D
:1045E000038C4FF6F877394021434FF6FC473A40A9
:1045F00040F201173A434FF6DD773B404FF6FF7725
:1046000007EA06172F433B43018102830384F0BD71
:104610000A460021018B4FF68F7319401143018325
:1046200070470A460021018B48F6FF7319404FF688
:10463000FF7303EA02231943018370470A460021EE
:10464000818B4FF68F7319401143818370470A465F
:104650000021818B48F6FF7319404FF6FF7303EA80
:10466000022319438183704721B1028842F08002FE
:10467000028004E002884FF67F731A400280704780
:1046800021B1828842F00402828004E082884FF6E1
:10469000FB731A408280704721B1828842F0080281
:1046A000828004E082884FF6F7731A408280704758
:1046B00021B1828842F00102828004E082884FF6B4
:1046C000FE731A40828070470A460021018B4FF624
:1046D000F77319401143018370470A460021018B8B
:1046E0004FF2FF7319404FF6FF7303EA0223194399
:1046F000018370470A460021818B4FF6F7731940FA
:104700001143818370470A460021818B4FF2FF736A
:1047100019404FF6FF7303EA022319438183704760
:104720000A460021018B4FF6FB73194011430183A8
:1047300070470A460021018B4FF6FF3319404FF6B0
:10474000FF7303EA02231943018370470A460021DD
:10475000818B4FF6FB7319401143818370470A46E2
:104760000021818B4FF6FF3319404FF6FF7303EAA8
:1047700002231943818370470A460021018B4FF6BB
:104780007F7319401143018370470A460021018B52
:10479000C1F30E014FF6FF7303EA022319430183AD
:1047A00070470A460021818B4FF67F7319401143F1
:1047B000818370470A460021818BC1F30E014FF6B9
:1047C000FF7303EA02231943818370470A460021DD
:1047D000018C4FF6FD7319401143018470470A465E
:1047E0000021018C4FF6F773194011430184704783
:1047F0000A460021018C4FF6DF7319404FF6FF7314
:1048000003EA02131943018470470A460021018C10
:104810004FF67F7319404FF6FF7303EA02131943F3
:10482000018470470A460021018C4FF6FF5319405E
:104830004FF6FF7303EA02231943018470470A46C7
:104840000021018C4FF2FF7319404FF6FF7303EA0A
:1048500002231943018470470A460021018C4DF65A
:10486000FF7319404FF6FF7303EA023319430184C3
:10487000704730B5002301248C40A3B2048C9C43C4
:104880000484048C02FA01F5ADB22C43048430BDDB
:1048900030B5002304248C40A3B2048C9C430484D0
:1048A000048C02FA01F5ADB22C43048430BD70B51E
:1048B0000346002000241846183001258D40ACB274
:1048C0001D8CA5431D8409B1082909D100EB6100A5
:1048D000056825F0700505600568154305600EE064
:1048E0000D1FC5F34E052844056825F4E045056015
:1048F00005684FF6FF7606EA02263543056070BD6F
:1049000021B1028842F00202028004E002884FF6E0
:10491000FD731A400280704721B1028842F0040200
:10492000028004E002884FF6FB731A400280704751
:1049300021B1828842F08002828004E082884FF6B2
:104940007F731A408280704702884FF6F7731A40CF
:10495000028002880A430280704782884FF68F7374
:104960001A40828082880A438280704702894FF60B
:10497000F8731A40028102890A4302817047028952
:104980004FF67F731A40028102890A430281704701
:1049900081847047818570478186704701877047A1
:1049A00081877047A0F84010704702884FF6FF4398
:1049B0001A40028002880A43028070470146888EAE
:1049C00070470146088F70470146888F704701463F
:1049D000B1F8400070470146888C70470146088D49
:1049E000704702460020138A0B400BB1012000E003
:1049F00000207047CA430282704730B5024600204B
:104A000000230024158A05EA0103958905EA0104BB
:104A100013B10CB1012000E0002030BDCA43028276
:104A2000704700002DE9FF5F06460D4693464FF0A4
:104A300000082F46A9462C46AA4606B125B94FF0D4
:104A4000FF3004B0BDE8F09F4FF000084AE0701C52
:104A500010F8080012283FD2DFE800F01213143ECD
:104A60003E151617183E3E3E3E1923321F09387870
:104A70004A4908700846017849A002F037FA2CE04C
:104A80002BE02AE029E028E027E026E025E099F85D
:104A900000104CA002F02AFA1FE04DA002F026FA06
:104AA0001BE0A17962792379A068CDE90032CDE9D4
:104AB0000210E378A27821884AA002F017FA0CE0ED
:104AC00053A002F013FA57A002F010FA9AF800105F
:104AD00058A002F00BFA00E000BF00BF08F101008F
:104AE00000F0FF0830784045B1DC0020A9E77047AE
:104AF0002A4800210170704753480068401C524901
:104B000008607047504800687047012080F31388A0
:104B100000BF00BF4D48006800F4E0604C49084306
:104B2000001D4A490860BFF34F8F00BF00BFFEE77A
:104B300000B5FFF7E1FF00BD08B50020009001219E
:104B4000684600F089F808BD70B505460E46002499
:104B50000DB9601E70BD00241BE0295D3D48FEF7C5
:104B60004DFC00BF40213B48FEF7B6FC0028F9D0C1
:104B7000022C0DD3285DFF280AD155213548FEF7B8
:104B80003DFC00BF40213348FEF7A6FC0028F9D0C9
:104B9000641CB442E1D33046DCE70000B0000020E2
:104BA0004576743A204556454E545F4C65645F4FD8
:104BB0006E4F66665F4368616E6765202564200AF4
:104BC00000000000525353492025640A00000000F1
:104BD0005452414E53504152454E545F444154410A
:104BE000200A0000574946495F4E5450203A205B46
:104BF00025642D25642D256420253032643A253026
:104C000032643A253032645D5B25645D200A000021
:104C10004D4F44554C4520494E464F202E2E2E0ACE
:104C200000000000574946204D4F44554C45202E6A
:104C30002E2E0A006D6F64756C6554797065203A8C
:104C4000205B25645D200A00AC0000200CED00E034
:104C50000000FA050038014070B504460D460026F4
:104C600024B9F0A002F042F9701E70BD2A46214618
:104C7000F44802F0CBF80646AE4205D0F2A002F0AE
:104C800035F94FF0FF30F0E73046EEE710B5044657
:104C90002CB9F4A002F02AF94FF0FF3010BD00202B
:104CA00020606060FF20207060700020F6E770B523
:104CB00004460D462CB9F6A002F018F94FF0FF306B
:104CC00070BD1E21F84802F075FB2A462146F648C1
:104CD000801C02F0F8FAF4483938A0F8515001214C
:104CE00080F83A10FFF70EFFEF493939C1F8530049
:104CF0000020E5E7F8B505460C4616460DB104B1AF
:104D00002EB9EAA002F0F2F84FF0FF30F8BD287893
:104D100000F0010098B111212278601C81542078A4
:104D2000401C207001206B1C0246002100900846A8
:104D300001F031FF08B1012000E0002030700020B8
:104D4000E4E72DE9F04104460D460026002704B1B2
:104D500035B9E1A002F0CAF84FF0FF30BDE8F081AC
:104D6000FFF7D0FE074628782178884203D0E4A0D8
:104D700002F0BCF80126012E03D1FFF7C3FEE8497B
:104D800008603046EAE738B505460C4605B12CB94F
:104D9000E4A002F0ABF84FF0FF3038BD00202070E7
:104DA00028782346012200210090084601F054FF94
:104DB0000121204601F0EAFD0020EEE72DE9F04751
:104DC00080460C4617461D46089E94F800900CB18C
:104DD00005B136B9DFA002F089F84FF0FF30BDE829
:104DE000F087B8F1000F53D11321AF481E3002F005
:104DF000E1FAB9F1010F06D0B9F1020F12D0B9F101
:104E0000050F43D122E0A84A6B32A2F14D01601C8C
:104E1000FFF770FF0120A4493939087000250020F0
:104E2000306034E0A0496A31881CFFF7ACFF48B914
:104E30009D48393890F8A30068700320287002203C
:104E4000306002E04FF0FF30C9E720E07A1E611CBD
:104E50009548223802F037FA781E93493939C1F85B
:104E60002D0010219048393890F85720583081543F
:104E7000583890F85700401C8B49393981F8570051
:104E80000320087000250020306000E000BF00BF54
:104E90000020A4E72DE9F04F8DB006468B4617465B
:104EA000994600200C9082468046002501ACBBF15B
:104EB000000F06D1B3A002F019F8681E0DB0BDE8CE
:104EC000F08FB9F1010F06D196F8088008F10600BD
:104ED000384485B201E0781D85B22B4642463946FA
:104EE000AEA002F003F8FF2004F8010B04F8010B58
:104EF000281204F8010B04F8015B3079401C04F817
:104F0000010B707904F8010B002004F8010B04F880
:104F1000019B4FF0080AB9F1010F0DD104F8018B84
:104F20000AF1010A01A901EB0A00424606F1090152
:104F300002F0C9F9C244444437B101A901EB0A00A7
:104F40003A46594602F0BFF9291D01A801F052FB6B
:104F50000146E81C01AA1154291D01A8FFF7F4FD20
:104F60000C900C98002806DA96A00C9901F0BEFF70
:104F70006FF00100A2E70020A0E7FEB505460E464F
:104F80001746002426B995A001F0B0FF601EFEBDB3
:104F90006846FFF77BFE05208DF80400424839384B
:104FA00090F83110D0F83100401C3F4A393AC2F82D
:104FB0003100C8B28DF805008DF80850072001F0C7
:104FC0002CFBADF802003A4631460DF1090002F023
:104FD0007AF90B21684601F00DFB8DF80A000B21D0
:104FE0006846FFF7B1FD0446002C06DA214685A08D
:104FF00001F07CFF6FF00100C9E70B216846FFF765
:1050000056FE2046C3E770B50446FFF77BFD054614
:1050100025496C312046FFF794FE012800D1FFE0BE
:1050200010E100004552523A2067697A5075744485
:105030006174612062756620697320656D70747992
:10504000200A00002CA300204552523A20466169F4
:105050006C656420746F2072625772697465200AEF
:10506000000000004552523A2067697A50726F740E
:105070006F636F6C48656164496E6974206865612F
:105080006420697320656D707479200A0000000047
:105090004552523A206461746120697320656D70D5
:1050A0007479200A0000000071A2002067697A4428
:1050B000617461506F696E74324576656E74204517
:1050C00072726F72202C20496C6C6567616C205085
:1050D0006172616D0A00000067697A436865636BFD
:1050E0005265706F7274204572726F72202C204965
:1050F0006C6C6567616C20506172616D0A00000024
:1051000076616C75654C65645F4F6E4F66665F4394
:1051100068616E6765204368616E6765640A0000B8
:10512000B400002067697A44617461506F696E74DD
:1051300073325265706F727444617461204572728B
:105140006F72202C20496C6C6567616C2050617215
:10515000616D0A0067697A50726F746F636F6C4992
:10516000737375656450726F6365737320457272F3
:105170006F72202C20496C6C6567616C20506172E5
:10518000616D0A005B4552525D20206461746120AC
:105190004973204E756C6C200A0000006C656E200F
:1051A0003D202564202C20734469644C656E203DAD
:1051B000202564202C646174615F6C656E203D2045
:1051C00025640A00756172742077726974652065C0
:1051D00072726F72202564200A00000067697A529B
:1051E00065706F727444617461204572726F7220D1
:1051F0002C20496C6C6567616C20506172616D0A8E
:10520000000000004552523A207561727420777296
:10521000697465206572726F72202564200A00002F
:10522000F3A001F063FEF8492046FFF7ACFD20B97A
:105230000122F5490420FFF7A0FEF348A3382178A6
:1052400080F8A510F148B5FBF0F100FB1150B8B99A
:10525000EF480068A84213D0EEA001F047FEEA49EB
:105260002046FFF790FD20B90122E7490420FFF70F
:1052700084FEE548A338217880F8A510E44805604D
:1052800070BD2DE9FE4F80460E4617464FF0000BCD
:105290000020029081468246002534460090B8F1F5
:1052A000000F01D006B137B9E0A001F01FFE4FF0AA
:1052B000FF30BDE8FE8F404601F02CFD00F0FF0AF4
:1052C000BAF1000F02D14FF0FF30F2E74FF00009C2
:1052D0005DE0012201A9404601F047FD8346BBF194
:1052E000000F52D0DD480078FF281FD19DF8040040
:1052F000FF281BD1DA48007848B9FF202070607081
:105300000220D84908800120D549087034E0D548EA
:105310000088042830DDD3480088A8422CD0FF2024
:10532000207060700220CF49088025E0CB480078CB
:10533000FF2803D19DF8040055281DD0C8480078E7
:10534000012819D19DF80400C64909886054C54850
:105350000088401CC34908800846008804280BDDEB
:105360000094009C608801F058F9001D85B2BD488A
:105370000088A84200D10CE09DF80400B7490870ED
:10538000B9480078401CB849087009F10109D145B5
:105390009FDB00BFB3480088042823DDB1480088A4
:1053A000A8421FD1AF480188204601F023F902909E
:1053B000AC480088401E215C029881420FD12A46E9
:1053C0002146304601F07FFF3D800020A44908704F
:1053D000A4490880A4490870A049087069E76FF0E3
:1053E000010066E7012064E710B500248648A33871
:1053F00090F83A0000B910BD9CA001F077FD8248FA
:10540000A338B0F851103B30FFF79EFB04467E48AE
:10541000A338B0F85100A04202D09CA001F066FD74
:10542000FFF770FB7849A339C1F8530000BFE2E7EA
:1054300070B50446744D683D34B9AFF2AC3001F03C
:1054400055FD4FF0FF3070BD2879401C217988420E
:1054500004D11E216C486A3801F0ACFF0020F2E74D
:105460003EB50446002524B98EA001F03FFD681E1C
:105470003EBD20680090606801909DF80400401CCB
:10548000C0B28DF80400052001F0C7F8ADF80200A5
:105490000921684601F0AEF88DF808000921684638
:1054A000FFF752FB0546002D04DA2946AFF2AC2087
:1054B00001F01CFD2846DBE710B55348A33890F8EF
:1054C0003A0001282CD15048A33890F8390002281E
:1054D00021DAFFF717FB4C49A339D1F85310401AD2
:1054E000C8281DD9FFF70EFB04464748A33890F89B
:1054F0003930D0F85320214675A001F0F7FCFFF7B2
:1055000073FF4148A33890F83900401C3E49A33945
:1055100081F8390004E01E213B486A3801F04AFF57
:1055200010BD30B59DB0044600252CB972A001F025
:10553000DDFC681E1DB030BD6846FFF7A7FB0220EA
:105540008DF8040060798DF8050077A103C9CDE9D5
:10555000020178A103C9CDE9040179A103C9CDE90C
:1055600008017AA103C9CDE9060120227AA10AA87F
:1055700001F0EEFE202281A10DF1520001F0A3FE08
:105580000020CDF84A00CDF84E009DF851008DF86E
:1055900051009DF8510040F002018DF8511000209B
:1055A00001F03BF8ADF848006F2001F036F8ADF897
:1055B00002007321684601F01DF88DF87200732116
:1055C0006846FFF7C1FA0546002D04DA2946AFF216
:1055D000CC3001F08BFC2846ACE7FEB504460E4605
:1055E000002524B96EA001F081FC681EFEBDEDE02F
:1055F0006368616E6765642C207265706F727420D9
:10560000646174610A000000DBA20020C027090069
:10561000B8000020496E666F3A2036303053207251
:1056200065706F727420646174610A0067697A50F2
:10563000726F746F636F6C4765744F6E6550616312
:105640006B6574204572726F72202C20496C6C65FA
:1056500067616C20506172616D0A0000C00000201B
:10566000BC000020BE000020C10000205761726E07
:10567000696E673A2074696D656F75742C20726568
:1056800073656E642064617461200A004552523A69
:1056900020726573656E6420646174612065727246
:1056A0006F720A004552523A2067697A50726F74DD
:1056B0006F636F6C436F6D6D6F6E41636B206461E0
:1056C000746120697320656D707479200A00000090
:1056D0005761726E696E673A67697A50726F746F5C
:1056E000636F6C526573656E6444617461202564F8
:1056F0002025642025640A0067697A50726F746FF0
:10570000636F6C476574446576696365496E666F5F
:10571000204572726F72202C20496C6C6567616C39
:1057200020506172616D0A003030303030303034DA
:1057300000000000303030303030303200000000E7
:10574000303330333030303000000000303330310F
:10575000303130300000000034346533313366635B
:105760006430393634323864626531383163333706
:105770003663316232373734000000003437373750
:105780006666653563616566343732363831636421
:1057900037363031613935373663386600000000FE
:1057A00067697A50726F746F636F6C4572726F7253
:1057B000436D64204572726F72202C20496C6C65B9
:1057C00067616C20506172616D0A00006846FFF7E6
:1057D0005DFA12208DF8040060798DF8050006202E
:1057E00000F01BFFADF802008DF808600A21684642
:1057F00000F000FF8DF809000A216846FFF7A4F9C0
:105800000546002D04DA2946AFF2086001F06EFB70
:105810002846FEBD70B5044625462CB9FCA001F013
:1058200065FB4FF0FF3070BDFE48A9680160E96874
:105830004160298A0181A97C8172A0F1A701B1F898
:10584000A70000F0EAFEF749A739A1F8A700D1F8B0
:10585000AF0000F0EFFEF349A739C1F8AF000E2109
:10586000F048A73890F87D207E3081547E3890F83B
:105870007D00401CEB49A73981F87D0004200870A9
:105880000020D0E710B5FFF73DF9044600BFFFF751
:1058900039F9001BB0F5167FF9D9FFF736F910BDBD
:1058A00010B504462CB9E0A001F020FB4FF0FF300A
:1058B00010BD208900F0B1FE2081E7480078C0F3D8
:1058C0008000217AC1F3800188425ED0207AC0F343
:1058D000800000282DD0207A00F0010088B100213E
:1058E000D048A73890F86A206B3081546B3890F814
:1058F0006A00401CCB49A73981F86A00D7A001F0A3
:10590000F5FA207AC0F3400000283ED00121C548B6
:10591000A73890F86A206B3081546B3890F86A0091
:10592000401CC049A73981F86A00D4A001F0DEFA12
:105930002BE0207A00F0010088B10021B948A73897
:1059400090F86A206B3081546B3890F86A00401CE4
:10595000B449A73981F86A00C0A001F0C7FA207ADB
:10596000C0F3400088B10221AE48A73890F86A2001
:105970006B3081546B3890F86A00401CA949A739F4
:1059800081F86A00C4A001F0B1FAB3480078C0F30E
:10599000C000217AC1F3C001884230D0207AC1080A
:1059A000AD48007861F3C300AB490870207AC0F3BA
:1059B000C00090B103219B48A73890F86A206B3053
:1059C00081546B3890F86A00401C9649A73981F8D9
:1059D0006A00B8A001F08AFA11E004219148A738C2
:1059E00090F86A206B3081546B3890F86A00401C44
:1059F0008C49A73981F86A00B6A001F077FA964879
:105A00000078C0F30010217AC1F30011884230D031
:105A1000207A01099048007861F304108E490870DB
:105A2000207AC0F3001090B105217E48A73890F885
:105A30006A206B3081546B3890F86A00401C7949B9
:105A4000A73981F86A00ABA001F050FA11E00621F5
:105A50007448A73890F86A206B3081546B3890F8FE
:105A60006A00401C6F49A73981F86A00A9A001F0BB
:105A70003DFA79480078C0F34010217AC1F3401113
:105A8000884230D0207A41097348007861F345108C
:105A900071490870207AC0F3401090B10721614825
:105AA000A73890F86A206B3081546B3890F86A0000
:105AB000401C5C49A73981F86A009FA001F016FAE2
:105AC00011E008215748A73890F86A206B308154BC
:105AD0006B3890F86A00401C5249A73981F86A0077
